:020000040800F2
:1000000000500020094F0008B1200008B32000086C
:10001000B5200008B7200008B92000080000000043
:10002000000000000000000000000000BB200008ED
:10003000BD20000800000000BF200008C12000080B
:10004000514F0008514F0008514F0008514F000810
:10005000514F0008514F0008514F0008514F000800
:10006000514F0008514F0008514F0008514F0008F0
:10007000514F0008514F0008514F0008514F0008E0
:10008000514F0008514F0008514F0008514F0008D0
:10009000514F0008514F0008514F0008514F0008C0
:1000A000514F0008514F0008514F0008514F0008B0
:1000B000C9200008D9200008E9200008514F000895
:1000C000514F0008514F0008514F0008514F000890
:1000D000514F0008514F0008514F0008F920000807
:1000E00009210008514F0008514F0008000000008E
:1000F0000000000000000000000000000000000000
:0C01000000000000000000005FF808F1A3
:1001100010B5054C237833B9044B13B10448AFF341
:1001200000800123237010BD500A00200000000051
:1001300090A8000808B5034B1BB103490348AFF36F
:10014000008008BD00000000540A002090A80008AC
:1001500081F0004102E000BF83F0004330B54FEA78
:1001600041044FEA430594EA050F08BF90EA020FE5
:100170001FBF54EA000C55EA020C7FEA645C7FEA78
:10018000655C00F0E2804FEA5454D4EB5555B8BF9B
:100190006D420CDD2C4480EA020281EA030382EA0C
:1001A000000083EA010180EA020281EA0303362D9E
:1001B00088BF30BD11F0004F4FEA01314FF4801C71
:1001C0004CEA113102D0404261EB410113F0004F83
:1001D0004FEA03334CEA133302D0524263EB43033A
:1001E00094EA050F00F0A780A4F10104D5F1200ED8
:1001F0000DDB02FA0EFC22FA05F2801841F1000133
:1002000003FA0EF2801843FA05F359410EE0A5F106
:1002100020050EF1200E012A03FA0EFC28BF4CF037
:10022000020C43FA05F3C01851EBE37101F00045ED
:1002300007D54FF0000EDCF1000C7EEB00006EEBFA
:100240000101B1F5801F1BD3B1F5001F0CD3490884
:100250005FEA30004FEA3C0C04F101044FEA4452DB
:1002600012F5800F80F09A80BCF1004F08BF5FEA62
:10027000500C50F1000041EB045141EA050130BD42
:100280005FEA4C0C404141EB0101013C28BFB1F554
:10029000801FE9D291F0000F04BF01460020B1FA9F
:1002A00081F308BF2033A3F10B03B3F120020CDA72
:1002B0000C3208DD02F1140CC2F10C0201FA0CF050
:1002C00021FA02F10CE002F11402D8BFC2F1200CB5
:1002D00001FA02F120FA0CFCDCBF41EA0C0190406B
:1002E000E41AA2BF01EB0451294330BD6FEA0404B4
:1002F0001F3C1CDA0C340EDC04F11404C4F120029F
:1003000020FA04F001FA02F340EA030021FA04F3B0
:1003100045EA030130BDC4F10C04C4F1200220FA07
:1003200002F001FA04F340EA0300294630BD21FA45
:1003300004F0294630BD94F0000F83F4801306BF0B
:1003400081F480110134013D4EE77FEA645C18BFFF
:100350007FEA655C29D094EA050F08BF90EA020F96
:1003600005D054EA000C04BF1946104630BD91EA8E
:10037000030F1EBF0021002030BD5FEA545C05D191
:100380004000494128BF41F0004130BD14F58004D0
:100390003CBF01F5801130BD01F0004545F0FE4144
:1003A00041F470014FF0000030BD7FEA645C1ABF79
:1003B000194610467FEA655C1CBF0B46024650EAB0
:1003C000013406BF52EA033591EA030F41F40021DC
:1003D00030BD00BF90F0000F04BF0021704730B562
:1003E0004FF4806404F132044FF000054FF0000137
:1003F00050E700BF90F0000F04BF0021704730B5F8
:100400004FF4806404F1320410F0004548BF4042CC
:100410004FF000013EE700BF42004FEAE2014FEA21
:1004200031014FEA02701FBF12F07F4393F07F4FFC
:1004300081F06051704732F07F4208BF704793F0FF
:100440007F4F04BF41F40021704730B54FF4607412
:1004500001F0004521F000411CE700BF50EA010215
:1004600008BF704730B54FF000050AE050EA0102BE
:1004700008BF704730B511F0004502D5404261EB2E
:1004800041014FF4806404F132045FEA915C3FF46F
:10049000D8AE4FF003025FEADC0C18BF03325FEA0C
:1004A000DC0C18BF033202EBDC02C2F1200300FABD
:1004B00003FC20FA02F001FA03FE40EA0E0021FAE2
:1004C00002F11444BDE600BF70B54FF0FF0C4CF4D0
:1004D000E06C1CEA11541DBF1CEA135594EA0C0F82
:1004E00095EA0C0F00F0DEF82C4481EA030621EABD
:1004F0004C5123EA4C5350EA013518BF52EA0335F8
:1005000041F4801143F4801338D0A0FB02CE4FF0A9
:100510000005E1FB02E506F00042E0FB03E54FF0D9
:100520000006E1FB03569CF0000F18BF4EF0010ED1
:10053000A4F1FF04B6F5007F64F5407404D25FEACD
:100540004E0E6D4146EB060642EAC62141EA555180
:100550004FEAC52040EA5E504FEACE2EB4F1FD0CC2
:1005600088BFBCF5E06F1ED8BEF1004F08BF5FEA40
:10057000500E50F1000041EB045170BD06F00046F2
:1005800046EA010140EA020081EA0301B4EB5C049F
:10059000C2BFD4EB0C0541EA045170BD41F4801197
:1005A0004FF0000E013C00F3AB8014F1360FDEBFBC
:1005B000002001F0004170BDC4F10004203C35DA98
:1005C0000C341BDC04F11404C4F1200500FA05F31B
:1005D00020FA04F001FA05F240EA020001F00042BC
:1005E00021F0004110EBD37021FA04F642EB060132
:1005F0005EEA430E08BF20EAD37070BDC4F10C045C
:10060000C4F1200500FA04F320FA05F001FA04F21F
:1006100040EA020001F0004110EBD37041F100010B
:100620005EEA430E08BF20EAD37070BDC4F1200516
:1006300000FA05F24EEA020E20FA04F301FA05F27E
:1006400043EA020321FA04F001F0004121FA04F226
:1006500020EA020000EBD3705EEA430E08BF20EAF6
:10066000D37070BD94F0000F0FD101F00046400030
:1006700041EB010111F4801F08BF013CF7D041EAB2
:10068000060195F0000F18BF704703F000465200B6
:1006900043EB030313F4801F08BF013DF7D043EA87
:1006A0000603704794EA0C0F0CEA135518BF95EA3D
:1006B0000C0F0CD050EA410618BF52EA4306D1D1C4
:1006C00081EA030101F000414FF0000070BD50EAE3
:1006D000410606BF1046194652EA430619D094EA6D
:1006E0000C0F02D150EA013613D195EA0C0F05D157
:1006F00052EA03361CBF104619460AD181EA0301AB
:1007000001F0004141F0FE4141F470014FF0000062
:1007100070BD41F0FE4141F4780170BD70B54FF0FD
:10072000FF0C4CF4E06C1CEA11541DBF1CEA13557D
:1007300094EA0C0F95EA0C0F00F0A7F8A4EB05045F
:1007400081EA030E52EA03354FEA013100F0888056
:100750004FEA03334FF0805545EA131343EA12631F
:100760004FEA022245EA111545EA10654FEA0026D4
:100770000EF000419D4208BF964244F1FD0404F58D
:10078000407402D25B084FEA3202B61A65EB0305E9
:100790005B084FEA32024FF480104FF4002CB6EBA6
:1007A000020E75EB030E22BFB61A754640EA0C0026
:1007B0005B084FEA3202B6EB020E75EB030E22BF66
:1007C000B61A754640EA5C005B084FEA3202B6EBA7
:1007D000020E75EB030E22BFB61A754640EA9C0066
:1007E0005B084FEA3202B6EB020E75EB030E22BF36
:1007F000B61A754640EADC0055EA060E18D04FEAF4
:10080000051545EA16754FEA06164FEAC30343EA93
:1008100052734FEAC2025FEA1C1CC0D111F4801F60
:100820000BD141EA00014FF000004FF0004CB6E759
:1008300011F4801F04BF01430020B4F1FD0C88BFF8
:10084000BCF5E06F3FF6AFAEB5EB030C04BFB6EB03
:10085000020C5FEA500C50F1000041EB045170BDF6
:100860000EF0004E4EEA113114EB5C04C2BFD4EB23
:100870000C0541EA045170BD41F480114FF0000EA7
:10088000013C90E645EA060E8DE60CEA135594EA23
:100890000C0F08BF95EA0C0F3FF43BAF94EA0C0F26
:1008A0000AD150EA01347FF434AF95EA0C0F7FF49B
:1008B00025AF104619462CE795EA0C0F06D152EAEF
:1008C00003353FF4FDAE1046194622E750EA4106D3
:1008D00018BF52EA43067FF4C5AE50EA41047FF4E4
:1008E0000DAF52EA43057FF4EBAE12E74FF0FF3C49
:1008F00006E000BF4FF0010C02E000BF4FF0010C1A
:100900004DF804CD4FEA410C7FEA6C5C4FEA430C92
:1009100018BF7FEA6C5C1BD001B050EA410C0CBFE1
:1009200052EA430C91EA030F02BF90EA020F002043
:10093000704710F1000F91EA030F58BF994208BFAA
:1009400090422CBFD8176FEAE37040F00100704767
:100950004FEA410C7FEA6C5C02D150EA013C07D1BE
:100960004FEA430C7FEA6C5CD6D152EA033CD3D009
:100970005DF8040B704700BF8446104662468C4603
:100980001946634600E000BF01B5FFF7B7FF002836
:1009900048BF10F1000F01BD4DF808EDFFF7F4FF5F
:1009A0000CBF012000205DF808FB00BF4DF808EDEA
:1009B000FFF7EAFF34BF012000205DF808FB00BF0D
:1009C0004DF808EDFFF7E0FF94BF012000205DF82F
:1009D00008FB00BF4DF808EDFFF7CEFF94BF0120E4
:1009E00000205DF808FB00BF4DF808EDFFF7C4FFDD
:1009F00034BF012000205DF808FB00BF4FEA410230
:100A000012F5001215D211D56FF47873B3EB625260
:100A100012D94FEAC12343F0004343EA505311F087
:100A2000004F23FA02F018BF404270474FF0000019
:100A3000704750EA013005D111F0004008BF6FF057
:100A4000004070474FF00000704700BF4FEA41027E
:100A5000B2F1E04324BFB3F5001CDCF1FE5C0DD91C
:100A600001F0004C4FEAC0024CEA5070B2F1004F66
:100A700040EB830008BF20F00100704711F0804F69
:100A800021D113F13872BCBF01F00040704741F42E
:100A900080114FEA5252C2F11802C2F1200C10FA32
:100AA0000CF320FA02F018BF40F001004FEAC12316
:100AB0004FEAD32303FA0CFC40EA0C0023FA02F3BA
:100AC0004FEA4303CCE77FEA625307D150EA013390
:100AD0001EBF4FF0FE4040F44000704701F0004060
:100AE00040F0FE4040F40000704700BF80F000403E
:100AF00002E000BF81F0004142001FBF5FEA4103F6
:100B000092EA030F7FEA226C7FEA236C6AD04FEAF5
:100B10001262D2EB1363C1BFD2184140484041403A
:100B2000B8BF5B42192B88BF704710F0004F40F4EC
:100B3000000020F07F4018BF404211F0004F41F408
:100B4000000121F07F4118BF494292EA030F3FD0D4
:100B5000A2F1010241FA03FC10EB0C00C3F12003E7
:100B600001FA03F100F0004302D5494260EB400076
:100B7000B0F5000F13D3B0F1807F06D340084FEAE1
:100B8000310102F10102FE2A51D2B1F1004F40EBD6
:100B9000C25008BF20F0010040EA0300704749003E
:100BA00040EB0000013A28BFB0F5000FEDD2B0FADB
:100BB00080FCACF1080CB2EB0C0200FA0CF0AABFFE
:100BC00000EBC25052421843BCBFD040184370479C
:100BD00092F0000F81F4000106BF80F400000132A2
:100BE000013BB5E74FEA41037FEA226C18BF7FEA79
:100BF000236C21D092EA030F04D092F0000F08BFBB
:100C00000846704790EA010F1CBF0020704712F0A1
:100C10007F4F04D1400028BF40F00040704712F1E0
:100C200000723CBF00F50000704700F0004343F045
:100C3000FE4040F4000070477FEA226216BF08467B
:100C40007FEA23630146420206BF5FEA412390EA3E
:100C5000010F40F4800070474FF0000304E000BF34
:100C600010F0004348BF40425FEA000C08BF7047E5
:100C700043F0964301464FF000001CE050EA0102A9
:100C800008BF70474FF000030AE000BF50EA0102BE
:100C900008BF704711F0004302D5404261EB4101AB
:100CA0005FEA010C02BF84460146002043F0B643D0
:100CB00008BFA3F18053A3F50003BCFA8CF2083AF5
:100CC000A3EBC25310DB01FA02FC634400FA02FCFE
:100CD000C2F12002BCF1004F20FA02F243EB020005
:100CE00008BF20F00100704702F1200201FA02FC67
:100CF000C2F1200250EA4C0021FA02F243EB02005A
:100D000008BF20EADC7070474FF0FF0C1CEAD0529D
:100D10001EBF1CEAD15392EA0C0F93EA0C0F6FD05E
:100D20001A4480EA010C400218BF5FEA41211ED03C
:100D30004FF0006343EA501043EA5111A0FB013128
:100D40000CF00040B1F5000F3EBF490041EAD371FD
:100D50005B0040EA010062F17F02FD2A1DD8B3F179
:100D6000004F40EBC25008BF20F00100704790F0E8
:100D7000000F0CF0004C08BF49024CEA502040EA3A
:100D800051207F3AC2BFD2F1FF0340EAC250704700
:100D900040F400004FF00003013A5DDC12F1190F3E
:100DA000DCBF00F000407047C2F10002410021FAB0
:100DB00002F1C2F1200200FA02FC5FEA310040F1C8
:100DC000000053EA4C0308BF20EADC70704792F041
:100DD000000F00F0004C02BF400010F4000F013A79
:100DE000F9D040EA0C0093F0000F01F0004C02BF74
:100DF000490011F4000F013BF9D041EA0C018FE7E3
:100E00000CEAD15392EA0C0F18BF93EA0C0F0AD0E8
:100E100030F0004C18BF31F0004CD8D180EA01000E
:100E200000F00040704790F0000F17BF90F0004FA7
:100E3000084691F0000F91F0004F14D092EA0C0F89
:100E400001D142020FD193EA0C0F03D14B0218BF1C
:100E5000084608D180EA010000F0004040F0FE4062
:100E600040F40000704740F0FE4040F440007047FE
:100E70004FF0FF0C1CEAD0521EBF1CEAD15392EA7D
:100E80000C0F93EA0C0F69D0A2EB030280EA010C6D
:100E900049024FEA402037D04FF0805343EA111106
:100EA00043EA10130CF000408B4238BF5B0042F164
:100EB0007D024FF4000C8B4224BF5B1A40EA0C0009
:100EC000B3EB510F24BFA3EB510340EA5C00B3EB3B
:100ED000910F24BFA3EB910340EA9C00B3EBD10F29
:100EE00024BFA3EBD10340EADC001B0118BF5FEA7B
:100EF0001C1CE0D1FD2A3FF650AF8B4240EBC250A4
:100F000008BF20F0010070470CF0004C4CEA502064
:100F10007F32C2BFD2F1FF0340EAC250704740F4B3
:100F200000004FF00003013A37E792F0000F00F0A5
:100F3000004C02BF400010F4000F013AF9D040EA23
:100F40000C0093F0000F01F0004C02BF490011F4B7
:100F5000000F013BF9D041EA0C0195E70CEAD153AF
:100F600092EA0C0F08D142027FF47DAF93EA0C0F96
:100F70007FF470AF084676E793EA0C0F04D14B027A
:100F80003FF44CAF08466EE730F0004C18BF31F02C
:100F9000004CCAD130F000427FF45CAF31F0004326
:100FA0007FF43CAF5FE700BF844641EA000313F0E3
:100FB000030349D1403A23D30B6803604B68436075
:100FC0008B688360CB68C3600B6903614B694361C5
:100FD0008B698361CB69C3610B6A03624B6A4362AD
:100FE0008B6A8362CB6AC3620B6B03634B6B436395
:100FF0008B6B8363CB6BC36340304031403ADBD2B1
:1010000030320BD30B6803604B6843608B6883609E
:10101000CB68C36010301031103AF3D20C3205D3D4
:1010200051F8043B40F8043B043AF9D2043208D0AA
:10103000D2071CBF11F8013B00F8013B01D30B881C
:1010400003806046704700BF082A13D38B07B1D0D6
:1010500010F00303AED0C3F10403D21ADB071CBFA8
:1010600011F8013B00F8013BA4D331F8023B20F812
:10107000023B9FE7043AD9D3013A11F8013B00F84B
:10108000013BF9D20B7803704B7843708B788370F7
:10109000604670474FEA410C7FEA6C5C02D150EA2F
:1010A000013C0AD14FEA430C7FEA6C5C02D152EA60
:1010B000033C02D14FF0000070474FF00100704731
:1010C0004A0011D212F5001211D20DD56FF47873C7
:1010D000B3EB62520ED44FEAC12343F0004343EA1C
:1010E000505323FA02F070474FF00000704750EA67
:1010F000013002D14FF0FF3070474FF000007047D1
:1011000053B94AB9002908BF00281CBF4FF0FF316E
:101110004FF0FF3000F0AEB9ADF1080C6DE904CE30
:1011200000F03EF8DDF804E0DDE9022304B070478A
:1011300038B505460C460022002328462146FFF715
:1011400035FC28B928462146BDE8384000F00AB8E9
:10115000284604F1004100F005F8404261EB4101EE
:1011600038BD00BFD0B500220B4B06460F46FFF737
:10117000ABF9FFF7A5FF0446FFF72CF90022074B58
:10118000FFF7A2F902460B4630463946FEF7E4FF68
:10119000FFF796FF2146D0BD0000F03D0000F04172
:1011A0002DE9F047089E0D4604468846002B4DD198
:1011B0008A42944668D9B2FA82F252B101FA02F335
:1011C000C2F1200120FA01F10CFA02FC41EA030805
:1011D00094404FEA1C41B8FBF1F71FFA8CFE01FB6B
:1011E000178807FB0EF0230C43EA084398420AD9FC
:1011F0001CEB030307F1FF3580F01E81984240F29B
:101200001B81023F63441B1AB3FBF1F001FB103357
:1012100000FB0EFEA4B244EA0344A6450AD91CEB27
:10122000040400F1FF3380F00981A64540F20681F5
:10123000644402380021A4EB0E0440EA07401EB1CA
:101240000023D440C6E90043BDE8F0878B4208D9AB
:10125000002E00F0EE800021C6E900050846BDE83A
:10126000F087B3FA83F100294AD1AB4202D382421C
:1012700000F2FC80841A65EB030301209846002EDF
:10128000E2D0C6E90048DFE702B9FFDEB2FA82F237
:10129000002A40F09180A1EB0C0001214FEA1C478D
:1012A0001FFA8CFEB0FBF7F307FB1300250C45EA91
:1012B00000450EFB03F0A84208D91CEB050503F11D
:1012C000FF3802D2A84200F2CE8043462D1AB5FB69
:1012D000F7F007FB10550EFB00FEA4B244EA0544EC
:1012E000A64508D91CEB040400F1FF3502D2A6453F
:1012F00000F2B6802846A4EB0E0440EA03409EE7C5
:10130000C1F120078B4022FA07FC4CEA030C25FAB6
:1013100007FA4FEA1C49BAFBF9F820FA07F309FB70
:1013200018AA8D401FFA8CFE1D4300FA01F308FB3A
:101330000EF02C0C44EA0A44A04202FA01F20BD946
:101340001CEB040408F1FF3A80F08880A04240F2D0
:101350008580A8F102086444241AB4FBF9F009FB63
:10136000104400FB0EFEADB245EA0444A64508D980
:101370001CEB040400F1FF356CD2A6456AD9023893
:10138000644440EA0840A0FB0295A4EB0E04AC4282
:10139000C846AE4656D353D0002E69D0B3EB0802F0
:1013A00064EB0E0422FA01F304FA07F71F43CC4062
:1013B000C6E90074002147E70CFA02FCC2F12001E3
:1013C00025FA01F34FEA1C4720FA01F195400D433D
:1013D000B3FBF7F107FB11331FFA8CFE280C40EA30
:1013E000034001FB0EF3834204FA02F408D91CEB1C
:1013F000000001F1FF382FD283422DD90239604419
:10140000C01AB0FBF7F307FB1300ADB245EA004585
:1014100003FB0EF0A84208D91CEB050503F1FF38C9
:1014200016D2A84214D9023B6544281A43EA014166
:1014300038E73146304607E72F46E4E61846F9E636
:101440004B45A9D2B9EB020865EB0C0E0138A3E7B6
:101450004346EAE7284694E74146D1E7D0467BE792
:101460006444023847E7023B65442FE7084606E735
:101470003146E9E6704700BF08B53C21054803F056
:10148000E9F83C21044803F0E5F8044802F06EFD59
:1014900008BD00BF5C0C0020EC0C0020A40C002058
:1014A0000C4B834200D0704770B50B4B1E68706ABE
:1014B0000A4B1D686C6A24B200B2FFF7D1FB084BDF
:1014C00018602046FFF7CCFB064B186000237362C0
:1014D0006B6270BDA40C00205C0C0020EC0C0020A2
:1014E0006C0A0020700A0020044B1B6803F10043C3
:1014F0000360034B1B680B60704700BF6C0A002041
:10150000700A00202DE9F04188B00024049405946D
:1015100006940794334B9A6942F010029A619A69D3
:1015200002F010020092009A9A6942F020029A6139
:101530009A6902F020020192019A9A6942F004022B
:101540009A619A6902F004020292029A9A6942F040
:1015500008029A619B6903F008030393039BDFF879
:10156000888022464FF40051404601F085FB1F4D14
:1015700022464FF20201284601F07EFB4FF4005351
:1015800004930127059706940226079604A940466E
:1015900001F060FA4FF20203049305970694079650
:1015A00004A9284601F056FA0423049305940694EE
:1015B00004A9284601F04EFA4FF4805304930C4BD3
:1015C0000593069404A90B4801F044FA22462146EB
:1015D000282001F077F9282001F0ACF908B0BDE827
:1015E000F08100BF0010024000100140000C0140DB
:1015F000000011100008014008B50B480B4B0360B8
:101600000B4B436000238360C3604FF48042026150
:1016100043618361C361036201F090FD00B908BDBD
:1016200000F0D8F8FBE700BF740A00200054004027
:10163000801A060010B586B000230293039304932A
:1016400005930268154B9A4201D006B010BD144CA8
:10165000A36943F00803A361A36903F0080300939F
:10166000009B4FF4407302931223039303230593CB
:1016700002A90C4801F0EEF90B4A536843F0E0630D
:1016800043F002035360E36943F40013E361E36949
:1016900003F400130193019BD7E700BF00540040FF
:1016A00000100240000C01400000014010B504464B
:1016B0000146034801F024F8204603F019FD10BD4F
:1016C000C40B00200C4B0D4A1A604FF480419980E6
:1016D0009A604FF4004199819A614FF48051998347
:1016E0001A624FF400529A84054A1A610021596126
:1016F0009A620C22DA627047C80B0020000C01408D
:10170000140C0020000000002DE9F00FDFF8B0C03D
:1017100021A3D3E90023CCE9002300220023CCE954
:1017200002231FA1D1E90001CCE904010026254FC5
:10173000CCE90A670024244DCCE90C451AA1D1E973
:101740000001CCE90E010FF26809D9E90089CCE962
:101750001089CCE90623CCE90823DFF870C00FF22A
:10176000580BDBE900ABCCE900AB4FF0000ADFF827
:1017700060B0CCE902ABCCE90423CCE90A67CCE940
:101780000C45CCE90E01CCE91089CCE90623CCE963
:101790000823BDE8F00F70470000000000207C40E7
:1017A000000000000030A140000000000020BC400C
:1017B000000000000020BCC00000000000E085C068
:1017C000D00A002000808640008086C0780B002070
:1017D00000000CC072B6FEE700B591B028220021CF
:1017E00006A803F0E5FB00230193029303930493FF
:1017F0000593012206924FF4803307930A92022246
:101800000D920E934FF4E0130F9306A801F0E0FF42
:1018100080B90F23019302210291002303934FF417
:1018200080620492059301A802F012FA20B911B067
:101830005DF804FBFFF7CEFFFFF7CCFFF0B583B0F8
:1018400000F0F0FFFFF7C8FFFFF75CFE00F04EFE70
:1018500000F0FCFC00F062FD00F060FFFFF7CCFE42
:1018600000F024FD364800F089F80128FAD0354C04
:10187000204600F08BFBFFF725FF334800F079FC92
:10188000FFF742FFFFF7F8FD204600F0ADFE2F4ABC
:101890002F49532000F01CFF00F0B6FC2D4C2146D0
:1018A000274800F0B5F92C4B1868FEF7B5FD024645
:1018B0000B46D4E91201CDE90001284800F0F6FA00
:1018C000FFF79CF8264D2860264E274C31462046CF
:1018D000FFF70AFE31682068FFF70EF94FF07C51E0
:1018E000FFF712FA0446214B1860214B1868FEF7E7
:1018F00093FD06460F462046FEF78EFDCDE900011A
:1019000032463B461B4800F0D1FAFFF777F81A4EF3
:1019100030602A6802440C4C12B20021204600F0CC
:1019200033FC2A6833681A4412B20121204600F0C1
:101930002BFC052000F0A0FF00F078FCACE700BF16
:10194000740A002008100020C80B0020A8A8000876
:10195000AD160008200B0020C00B0020D00A00208C
:10196000F80B00201C0B0020180B0020C80A0020D8
:10197000C40B0020780B0020FC0B00202DE9F04167
:1019800086B0054664230293012301930DF11702EB
:1019900000927522D02101F061FD9DF81730682B6F
:1019A00003D0012006B0BDE8F08100248DF8164078
:1019B0004FF06408CDF80880012601960DF1160756
:1019C000009733466B22D021284601F095FC07236F
:1019D0008DF81630CDF8088001960097334619220D
:1019E000D021284601F088FC8DF81640CDF80880FB
:1019F0000196009733461C22D021284601F07CFC3A
:101A00008DF81640CDF808800196009733461B22CA
:101A1000D021284601F070FC2046C3E72DE9F047AD
:101A200092B08246CDE90623D0E90834CDE90434EA
:101A30001A462346DDE91A01FEF78EFBDDE91C2379
:101A4000FEF742FDDAE90623FEF788FB06460F465D
:101A5000CDE90867CAE90667DAE91045DDE91C2324
:101A600020462946FEF730FD02460B46CDE902230B
:101A7000DAE90C8942464B46FEF76EFBDAE90E675F
:101A800032463B46FEF768FBDAE90023FEF766FBC9
:101A9000DDE91C23FEF718FDDAE90A23FEF75EFBF9
:101AA0000A460146CDE90012CAE90A12DDE902231D
:101AB00040464946FEF750FB80468946CDE90A89F3
:101AC000CAE90C89DDE9022330463946FEF744FBBA
:101AD0008046894602460B46CAE90E23DDE91C23EF
:101AE000DAE90201FEF7F0FC02460B4620462946E1
:101AF000FEF734FB05460E46CDE90C56CAE91056F2
:101B0000DAE90423DDE9004520462946FEF726FBF5
:101B100006460F4602460B4620462946FEF7FEFDC6
:101B200004460D46CDE90E4532463B46CDE90289D5
:101B300040464946FEF7F2FD80468946CDE91089C8
:101B4000DDE9086732463B46DDE90601FEF704FBA6
:101B500002460B46CDE9062320462946FEF7B4FC93
:101B600002460B4630463946FEF7F8FA06460F465F
:101B7000CAE90667DDE9062340464946FEF7A4FCAC
:101B800002460B46DDE90401FEF7E8FACAE908015E
:101B900022462B46DDE90001FEF796FC02460B4685
:101BA000DDE90001FEF7D8FACAE90A0122462B4610
:101BB000DDE90A4520462946FEF786FC02460B462B
:101BC00020462946FEF7C8FACAE90C0142464B46B0
:101BD000DDE90001FEF778FC02460B46DDE9020173
:101BE000FEF7BAFACAE90E0142464B46204629469C
:101BF000FEF76AFC02460B46DDE90C01FEF7ACFA83
:101C0000CAE910013046394612B0BDE8F08700003D
:101C10002DE9F04F89B00C46642302930E23019303
:101C200004AB009301233B22D02101F017FC9DF867
:101C300010309DF8110040EA032000B220809DF88A
:101C400012309DF8139049EA03290FFA89F9A4F894
:101C500002909DF814309DF8158048EA03280FFA89
:101C600088F8A4F804809DF81660360236B29DF814
:101C700017301E439DF818309DF819B04BEA032B1E
:101C80000FFA8BFBA4F820B09DF81A309DF81BA02A
:101C90004AEA032A0FFA8AFAA4F822A09DF81C3017
:101CA0009DF81D7047EA03273FB2A784FEF7A2FB09
:101CB0000022754BFEF708FCC4E902014846FEF716
:101CC00099FB0022704BFEF7FFFBC4E9040140467C
:101CD000FEF790FB66A3D3E90023FEF71FFDC4E9DE
:101CE00006013046FEF7BCFF6849FFF7C1F86849B6
:101CF000FEF702FF20645846FEF77CFB5EA3D3E9A3
:101D00000023FEF70BFDC4E90A015046FEF772FB03
:101D100059A3D3E90023FEF701FDC4E90C013846BD
:101D2000FEF768FB54A3D3E90023FEF7F7FCC4E9F0
:101D30000E0100F095FD574D2B68C01AFEF74AFBC7
:101D40000022554BFEF7EAFC8046894600F088FDEC
:101D50002860B4F90000B4F9043003FB03F300FB7E
:101D60000030FEF747FB08F0DBFB06460F4600227B
:101D70000023FEF711FE002866D1B4F90200FEF739
:101D800039FB32463B46FEF7C9FC08F035FA3CA366
:101D9000D3E90023FEF798FB82468B46B4F9005046
:101DA0006D42B4F90400FEF725FB06460F462846AF
:101DB000FEF720FB32463B4608F0B0FB30A3D3E9E8
:101DC0000023FEF781FB06460F460022334BFEF749
:101DD000EDFD30B10022324BD4E91401FEF704FED0
:101DE00070B900222E4B30463946FEF7FDFD002823
:101DF0002FD00022294BD4E91401FEF7D7FD40B3C0
:101E0000284BC3E90667C4E91467666D0022244BBA
:101E1000206D26F00041FEF7E7FD28B1E16AA26AD5
:101E200001F10043C4E90A23CDE90289D4E90A2378
:101E3000CDE9002352465B461B48FFF7EFFDC4E99E
:101E4000120109B0BDE8F08F4FF0000A4FF0000B0F
:101E5000A4E7CDE90289D4E90C23CDE90023324679
:101E60003B461048FFF7DAFDC4E91401CDE700BF97
:101E7000000000000029CC4000000000006060402D
:101E8000F8C1631ADCA54C400000103F0000AA43D3
:101E9000B81E1242000C002000408F40008056C047
:101EA0000080564048000020000000202DE9F04747
:101EB000824610461946DDE90823FEF74DF904462F
:101EC0000D46DAE90623FEF749F906460F46CAE948
:101ED0000667DAE90A8942464B46FEF785FD002887
:101EE00047D0CAE90689DAE9082320462946FEF7E1
:101EF00033F98046894622462B46DAE90001FEF78F
:101F0000E3FA06460F46DAE90623DAE90201FEF7AC
:101F1000DBFA02460B4630463946FEF71FF9064605
:101F20000F4642464B46DAE90401FEF7CDFA024677
:101F30000B4630463946FEF711F980468946DAE904
:101F40000E6702460B4630463946FEF72FFD50B964
:101F5000DAE9106742464B4630463946FEF744FD03
:101F600008B946464F46CAE9084530463946BDE8F5
:101F7000F087DAE90C8942464B4630463946FEF78F
:101F800015FD0028AFD0CAE90689ACE708B5054BB6
:101F90001860054B1868002302221946806803F078
:101FA000AFF808BD040C00209C000020022801D8D6
:101FB0000120704708B502F0D1FF0923036000201B
:101FC00008BD000010B5013801280AD814464FF0AA
:101FD000FF3392B20748006802F0FBFC40B920468C
:101FE00010BD02F0BBFF092303604FF0FF30F7E79D
:101FF0000520F5E7040C0020022801D800207047D6
:1020000008B502F0ABFF092303604FF0FF3008BDB5
:1020100008B502F0A3FF092303604FF0FF3008BDAD
:1020200008B548B94FF0FF3301220848006802F0B4
:102030003CFD40B9012008BD02F090FF0923036078
:102040004FF0FF30F7E70520F5E700BF040C002054
:1020500008B5022804D84FF400534B60002008BD97
:1020600002F07CFF09230360F8E7000082B00E4B0A
:102070009A6942F001029A619A6902F001020092A3
:10208000009ADA6942F08052DA61DB6903F080532A
:102090000193019B054A536823F0E06343F000730A
:1020A000536002B0704700BF0010024000000140C2
:1020B000FEE7FEE7FEE7FEE7FEE770477047704782
:1020C00008B500F0C1FB08BD08B5024801F087FF64
:1020D00008BD00BF5C0C002008B5024801F07FFF7E
:1020E00008BD00BFA40C002008B5024801F077FF2E
:1020F00008BD00BFEC0C002008B5024802F0CAFD84
:1021000008BD00BF0810002008B54FF4805000F053
:10211000BBFD08BD0120704708B502F01FFF162364
:1021200003604FF0FF3008BD08B54FF0FF31FFF7F7
:10213000F3FFFEE708B503460B4A126842B10A4AAC
:10214000106803446A46934206D8074A136008BDE4
:10215000054A06491160F2E702F000FF0C23036014
:102160004FF0FF30F3E700BF080C0020981000206C
:10217000704710B504464169006902F0FDF9E16A53
:10218000A06A02F0F9F910BD2DE9F04103461446AA
:10219000B1B9006899889E689F89D3F810805D69FD
:1021A000002C15DD012200F067FD00223946304683
:1021B00000F062FDBDB9D8F800305C63BDE8F08185
:1021C0008069998B1E6A9F8CD3F82880DD6AE7E7C7
:1021D000644224B2002200F04FFD0122394630460D
:1021E00000F04AFDE6E7042D05D0082D07D0D8F809
:1021F00000301C64E2E7D8F800309C63DEE7D8F8D2
:102200000030DC63DAE7000008B500F02FFB4FF484
:102210007A73B3FBF0F3034A136000F021FB024B27
:10222000186008BD100C00200C0C002008B500F050
:1022300017FB044B1B68C01A034B1B68B3FBF0F081
:1022400008BD00BF0C0C0020100C002000B58DB0A4
:102250002422002103A802F0ABFE00230193029385
:1022600011484FF080420260436083604FF6FF7276
:10227000C26003618361012303930593099303A95A
:1022800001F0FCFF50B900230193029301A9064815
:1022900002F046FA28B90DB05DF804FBFFF79AFA90
:1022A000F1E7FFF797FAF6E75C0C002000B587B07E
:1022B000002302930393049305930093019315481D
:1022C000154A026041F61F42426083603122C260BB
:1022D00003618023836101F079FF90B94FF480534B
:1022E000029302A90B4802F0CBF868B900230093CF
:1022F00001936946074802F013FA40B907B05DF848
:1023000004FBFFF767FAE9E7FFF764FAEEE7FFF788
:1023100061FAF3E7A40C00200004004000B58DB082
:102320002422002103A802F043FE0023019302931C
:102330001148124A0260436083604FF6FF72C26028
:1023400003618361012303930593099303A901F0BA
:1023500095FF50B900230193029301A9064802F0AA
:10236000DFF928B90DB05DF804FBFFF733FAF1E7A8
:10237000FFF730FAF6E700BFEC0C00200008004041
:1023800000B583B00368134A934205D0124A9342C2
:102390000DD003B05DF804FB104B9A6942F4006263
:1023A0009A619B6903F400630093009BF1E70B4B78
:1023B000DA6942F00202DA61DB6903F00203019399
:1023C000019B002201211D2000F07CFA1D2000F05D
:1023D000B1FADEE7002C014000040040001002408A
:1023E00000B589B00023049305930693079303680F
:1023F000B3F1804F05D0254A934225D009B05DF84E
:1024000004FB03F50433DA6942F00102DA61DA69A8
:1024100002F001020092009A9A6942F004029A6165
:102420009B6903F004030193019B0323049304A914
:10243000174800F00FFB002211461C2000F042FA62
:102440001C2000F077FAD9E7124BDA6942F0040257
:10245000DA61DA6902F004020292029A9A6942F0A1
:1024600008029A619B6903F008030393039BC0234E
:10247000049304A9084800F0EDFA002211461E203A
:1024800000F020FA1E2000F055FAB7E700080040DF
:102490000008014000100240000C014000B587B068
:1024A0000023029303930493059302680D4B9A4211
:1024B00002D007B05DF804FB03F564439A6942F06B
:1024C00004029A619B6903F004030193019B4FF49A
:1024D0001063029302230393059302A9024800F0BC
:1024E000B9FAE6E7002C01400008014010B596B0AB
:1024F0000024129413941494159410941194099434
:102500000A940B940C940D940E940F94202221465F
:1025100001A802F04DFD3248324B036044608460F4
:1025200041F61F43C360046144618023836101F06D
:102530004DFE00283ED14FF48053129312A9284833
:1025400001F09EFF002838D1254801F06BFE0028DD
:1025500036D100231093119310A9214802F0E0F81E
:10256000002830D16023099300220A920B920C922A
:102570000D920E920F9209A9194801F00DFF28BB88
:102580000C2209A9164801F007FF10BB0023019394
:1025900002930393049305934FF400520692089319
:1025A00001A90F4802F0F2F8B0B90D48FFF776FF25
:1025B00016B010BDFFF70EF9BDE7FFF70BF9C3E743
:1025C000FFF708F9C5E7FFF705F9CBE7FFF702F9D1
:1025D000D6E7FFF7FFF8D9E7FFF7FCF8E5E700BF1C
:1025E000140C0020002C014010B504464FF48072FA
:1025F0000021044802F0DCFC01220349204602F0DD
:1026000066FC10BD480E00204C0F002070B505463A
:10261000264B1A68511C1960254B1B7825498B5491
:102620000A2B05D001222249284602F050FC70BD39
:10263000214C4FF48A7632460021204602F0B8FC45
:10264000204602F0B3FE024604EB000C1B4B03CB0A
:10265000A050CCF804101B88ACF80830154920466F
:1026600002F026FEFF2332462146284602F0B1F949
:10267000002400E00134124B1B68A3420BDD114B18
:102680001A5D0C4B1B789A42F4D10F4B53F824304F
:102690000E489847EEE74FF480720021054802F09B
:1026A00087FC024B00221A60BCE700BF480F0020E5
:1026B0004C0F0020480E0020340D0020CCA800084C
:1026C000640F0020500F0020B80F0020490E00209A
:1026D00030B4074C2368074D45F823100649C85409
:1026E000064941F823200133236030BC704700BF06
:1026F000640F0020B80F0020500F0020680F00204A
:102700000B780A2B00D1704710B50446084602F03A
:1027100021FCFEF79BF9206010BD000008B50A48B7
:102720000A4B03604FF4E133436000238360C360CE
:1027300003610C2242618361C36102F01BF900B99D
:1027400008BDFFF747F8FBE70810002000480040ED
:1027500030B587B000230293039304930593026876
:102760001B4B9A4201D007B030BD03F5E433DA6960
:1027700042F48022DA61DA6902F480220092009A3F
:102780009A6942F008029A619B6903F00803019379
:10279000019B4FF480630293022303930323059369
:1027A0000C4D02A9284600F055F94FF4006302933E
:1027B00000240394049402A9284600F04BF9224611
:1027C0002146272000F07EF8272000F0B3F8CAE762
:1027D00000480040000C014010B504460E4B18782C
:1027E0004FF47A73B3FBF0F30C4A1068B0FBF3F0CC
:1027F00000F0AEF868B90F2C01D901200AE00022E0
:1028000021464FF0FF3000F05DF8054B1C600020C2
:1028100000E0012010BD00BF9400002090000020C7
:102820009800002008B5074A136843F010031360AE
:10283000032000F035F80020FFF7CEFFFFF716FC6D
:10284000002008BD00200240034A1168034B1B789A
:102850000B441360704700BF4C1000209400002010
:10286000014B1868704700BF4C100020014B1878CE
:10287000704700BF9400002038B50446FFF7F0FF12
:102880000546B4F1FF3F02D0044B1B781C44FFF710
:10289000E7FF401BA042FAD338BD00BF94000020E0
:1028A000074AD36823F4E0631B041B0C000200F406
:1028B000E060034343F0BF6343F40033D3607047E9
:1028C00000ED00E000B5194BDB68C3F30223C3F150
:1028D000070CBCF1040F28BF4FF0040C03F1040EE9
:1028E000BEF1060F18D9033B4FF0FF3E0EFA0CFC69
:1028F00021EA0C0199400EFA03F322EA030319437B
:1029000000280BDB0901C9B200F1604000F561400D
:1029100080F800135DF804FB0023E5E700F00F00EA
:102920000901C9B2024B1954F4E700BF00ED00E001
:1029300014ED00E0002807DB00F01F02400901232E
:102940009340024A42F82030704700BF00E100E0A7
:102950000138B0F1807F0BD24FF0E0235861054A77
:10296000F02182F823100020986107221A61704735
:102970000120704700ED00E090F82130022B06D0D6
:1029800004238363002380F820300120704702680D
:10299000136823F00E0313600268136823F0010329
:1029A0001360036CC16B012202FA03F34B6080F8E1
:1029B0002120002380F820301846704708B590F891
:1029C0002130022B03D004238363012008BD026859
:1029D000136823F00E0313600268136823F00103E9
:1029E00013600368194A934214D0143293421FD0E3
:1029F000143293421ED0143293421ED014329342AA
:102A00001ED01432934202D04FF0807203E04FF494
:102A1000801200E001220E4B5A60012380F8213021
:102A2000002380F82030436B6BB198470020CDE73E
:102A30001022F0E74FF48072EDE74FF48052EAE79E
:102A40004FF48032E7E70020C0E700BF08000240F3
:102A50000000024070B582B00024A446A6E0804D7C
:102A6000AA4210D007D97F4DAA420CD005F5803577
:102A7000AA4208D013E0A5F58015AA4203D005F5B7
:102A80007025AA4207D18A68002A58D0012A51D05D
:102A90004361082403E0A5F58015AA42F3D0BEF1F6
:102AA000FF0F4ED80646BEF1FF0F4CD84FEA8C02FE
:102AB00033680F25954023EA050304FA02F2134315
:102AC00033604B6813F0805F6ED0674B9A6942F0B9
:102AD00001029A619B6903F001030193019B4FEA94
:102AE0009C02951C614B53F825600CF003039D007C
:102AF0000F23AB4026EA03065D4B984229D003F52D
:102B00008063984200F08E8003F58063984200F065
:102B10008B8003F58063984219D004231AE0CC68B7
:102B2000BDE7CC680434BAE7CC680834B7E7CC68B2
:102B30000C34B4E703610824B1E70024AFE70424B0
:102B4000ADE7061DAFE7ACF108029200B0E7032342
:102B500000E00023AB4033430232444D45F82230BD
:102B60004B6813F4803F61D0424A136843EA0E0376
:102B700013604B6813F4003F5ED03E4A536843EA4B
:102B80000E0353604B6813F4801F5BD0394A93687F
:102B900043EA0E0393604B6813F4001F58D0354A84
:102BA000D36843EA0E03D3600CF1010C0A6832FAD1
:102BB0000CF353D0012303FA0CF302EA030E33EAB9
:102BC0000202F1D14A68122A3FF649AF122A3FF6B3
:102BD00066AF01A555F822F0872A00081F2B0008D0
:102BE000292B00083B2B00089F2A00089F2A000879
:102BF0009F2A00089F2A00089F2A00089F2A000891
:102C00009F2A00089F2A00089F2A00089F2A000880
:102C10009F2A00089F2A00089F2A0008232B0008EB
:102C20002F2B0008012395E7022393E7114A13682D
:102C300023EA0E0313609CE70E4A536823EA0E034F
:102C400053609FE70B4A936823EA0E039360A2E761
:102C5000084AD36823EA0E03D360A5E702B070BD2B
:102C6000000022100000311000100240000001405E
:102C700000080140000401400AB1016170470904E5
:102C8000016170477047000008B5054B5B6903425E
:102C900000D108BD024B5861FFF7F4FFF9E700BF10
:102CA0000004014003685A6912F4806F01D10020CA
:102CB00070476FF480625A6100230363202280F81A
:102CC0003D2080F83E30026C42F00402026480F83D
:102CD0003C30012070472DE9F04107460D469046F3
:102CE0001E4624E0FFF7BCFD069BC01AB04200D888
:102CF000EEB900233B63202287F83D2087F83E3061
:102D00003A6C42F020023A6487F83C3001201EE021
:102D10003B689C6925EA040C1FFA8CFCBCFA8CFC0D
:102D20004FEA5C1CE04511D1B6F1FF3FDAD1C5F3A3
:102D30000743012BECD13B685B6925EA030C1FFAC2
:102D40008CFCBCFA8CFC4FEA5C1CEBE70020BDE875
:102D5000F0812DE9F04105460E46174698463DE0C4
:102D60001A6842F400721A602B686FF480625A612C
:102D700000232B63202285F83D2085F83E302A6C05
:102D800042F004022A6485F83C30012034E0FFF769
:102D900067FDA0EB0800B84200D8FFB900232B6301
:102DA000202285F83D2085F83E302A6C42F0200232
:102DB0002A6485F83C3001201EE02B689C6926EAD5
:102DC0000404A4B2003C18BF0124A4B12B685A69C2
:102DD00012F4806FC4D1B7F1FF3FD8D1C6F30743D7
:102DE000012BEAD12B685C6926EA0404A4B2003CFA
:102DF00018BF0124E9E70020BDE8F08170B5044662
:102E00000D46164623685B6913F0800F1CD12046DF
:102E1000FFF748FFD0B9B5F1FF3FF3D0FFF720FD32
:102E2000801BA84201D8002DECD10023236320226F
:102E300084F83D2084F83E30226C42F02002226467
:102E400084F83C30012000E0002070BD0120FCE748
:102E50002DE9F04385B004460D4691461F46DDF846
:102E600030800D9E0368196841F4807119600096E6
:102E7000434600224FF00111FFF72DFF60B9236890
:102E800005F0FE051D613346424626492046FFF700
:102E900060FF68B1012008E023681B6813F4807F9D
:102EA00002D04FF400732364032005B0BDE8F08323
:102EB0000023039323685A6903929B690393039B3E
:102EC000324641462046FFF799FF30B9012F0FD116
:102ED00023685FFA89F61E61E7E7236C042B01D0B3
:102EE0000120E2E72268136843F400731360F7E7F8
:102EF00023684FEA19221A61324641462046FFF7FD
:102F00007DFF20B923685FFA89F61E61CDE7236C47
:102F1000042B01D00120C8E72268136843F4007332
:102F20001360F7E7020001002DE9F04784B0044682
:102F30000D46164699460C9FDDF8348002681368EA
:102F400043F4806313600368196841F48071196069
:102F5000CDF800803B4600224FF00111FFF7BBFE89
:102F600070B95FFA85FA236805F0FE051D614346D6
:102F70003A4641492046FFF7ECFE68B1012008E0DF
:102F800023681B6813F4807F02D04FF4007323641E
:102F9000032004B0BDE8F0870023039323685A6937
:102FA00003929B690393039B424639462046FFF7F1
:102FB00025FF80B9B9F1010F18D12368F6B21E615F
:102FC000424639462046FFF719FF68B3236C042BAD
:102FD00024D00120DDE7236C042B01D00120D8E7A9
:102FE0002268136843F400731360F7E72368320A1A
:102FF0001A61424639462046FFF700FF18B9236898
:10300000F6B21E61DCE7236C042B01D00120C0E77F
:103010002268136843F400731360F7E722681368AB
:1030200043F400731360D4E72268136843F4807399
:103030001360CDF800803B4600224FF0011120467E
:10304000FFF749FE68B922684AF00103136143465D
:103050003A4609492046FFF77CFE002899D0012016
:1030600097E723681B6813F4807F02D04FF4007346
:10307000236403208DE700BF0200010070B5044601
:103080000D46164623685B6913F0040F1CD12046D9
:10309000FFF708FED0B9B5F1FF3FF3D0FFF7E0FB33
:1030A000801BA84201D8002DECD1002323632022ED
:1030B00084F83D2084F83E30226C42F020022264E5
:1030C00084F83C30012000E0002070BD0120FCE7C6
:1030D00070B505460C4616462B68596911F0400F2D
:1030E00029D1596911F0100F15D1FFF7B9FB801BD9
:1030F000A04201D8002CEFD100232B63202285F8B9
:103100003D2085F83E302A6C42F020022A6485F882
:103110003C30012070BD6FF010025A6100232B6318
:10312000202285F83D2085F83E302A6C2A6485F8F7
:103130003C300120EEE70020ECE70000002800F022
:10314000CC8070B5044690F83D30002B77D0242316
:1031500084F83D302268136823F00103136022686D
:10316000136843F4004313602268136823F4004398
:10317000136000F029FE62685A4B9A4264D85A4B99
:1031800098428CBF00230123002B40F0A8805749B0
:10319000A1FB00318B0C25686A6822F03F0242EAED
:1031A00091426A6021680A6A22F03F0266684D4DCA
:1031B000AE424FD8013313430B622168CA6922F42F
:1031C0004F4222F0FF026668464B9E424CD8431E97
:1031D0007600B3FBF6F3013340F6FC70034278D07F
:1031E000C3F30B031343CB6121680B6823F0C003C7
:1031F000E269206A024313430B6021688B6823F461
:10320000034323F0FF032269E068024313438B600A
:103210002168CB6823F0FF036269A069024313436E
:10322000CB602268136843F0010313600020206420
:10323000202384F83D30206384F83E0070BD80F880
:103240003C30FEF7F7F982E7294B98428CBF002308
:10325000012399E74FF4967505FB03F3254DA5FB74
:1032600003539B090133A6E7A368BBB9451E06EBD0
:10327000460CB5FBFCF50135C5F30B05B5FA85F534
:103280006D0945BBC3B9013806EB4603B0FBF3F348
:103290000133C3F30B0343F40043A3E7451E06EBDE
:1032A000860C0CEB8C0CB5FBFCF50135C5F30B055E
:1032B000B5FA85F56D09E4E7013806EB860303EB03
:1032C0008303B0FBF3F30133C3F30B0343F4404335
:1032D00088E7042386E7012384E701207047012063
:1032E000ACE700BFA08601007F841E0083DE1B4385
:1032F000FF083D00D34D62102DE9F04383B0044632
:103300000F46904699460C9EFFF7AAFA054694F898
:103310003D00C0B2202803D0022003B0BDE8F083F6
:103320000095192301224B492046FFF7D4FC0028C1
:1033300040F0898094F83C30012B00F08680012316
:1033400084F83C3023681A6812F0010F03D11A6820
:1033500042F001021A602268136823F400631360CC
:10336000212384F83D30402384F83E300023236439
:103370000A9B6362BDF82C306385638D2385364BD1
:10338000E362019500964B46424639462046FFF7D8
:103390005FFD00285BD1238D002B35D02A463146B6
:1033A0002046FFF72BFD20BB626A236812781A6162
:1033B000626A531C6362218D013989B22185638D54
:1033C0009BB2013B9BB263852368586910F0040FE0
:1033D000E1D00029DFD052781A61636A0133636259
:1033E000238D013B2385638D9BB2013B9BB263859B
:1033F000D1E7236C042B01D001208EE722681368EB
:1034000043F400731360F7E72A4631462046FFF77E
:1034100035FE50B1236C042B01D001207DE72268DA
:10342000136843F400731360F7E72268136843F4EA
:1034300000731360202384F83D30002384F83E306D
:1034400084F83C3069E7022067E7022065E7012045
:1034500063E700BF020010000000FFFF2DE9F0430A
:1034600089B004460F4690469946129E0023079362
:10347000FFF7F6F9054694F83D00C0B2202804D0C5
:103480000227384609B0BDE8F083009519230122D0
:1034900081492046FFF71FFC002840F0728194F814
:1034A0003C30012B00F06F81012384F83C3023680D
:1034B0001A6812F0010F03D11A6842F001021A6073
:1034C0002268136823F400631360222384F83D30DC
:1034D000402384F83E3000232364109B6362BDF8D0
:1034E00044306385638D23856C4BE36201950096C0
:1034F0004B46424639462046FFF716FD0746002850
:1035000040F04381238D5BB9039323685A6903928A
:103510009A690392039A1A6842F400721A60EDE005
:10352000012B0FD0022B21D02268136843F4806353
:1035300013600023069323685A6906929B690693D9
:10354000069BDBE02268136823F48063136072B685
:103550000023049323685A6904929A690492049A96
:103560001A6842F400721A6062B6C7E022681368F3
:1035700043F40063136072B60023059323685A690D
:1035800005929A690592059A1A6822F480621A6077
:1035900062B6B3E02A4631462046FFF799FD00287F
:1035A00040F0F58023681A69636A1A70636A013310
:1035B0006362238D013B2385638D9BB2013B9BB2EC
:1035C00063859BE000953346002235492046FFF78E
:1035D00082FB002840F0DF802268136823F48063B8
:1035E000136072B623681A69636A1A70636A0133DA
:1035F0006362238D013B2385638D9BB2013B9BB2AC
:103600006385284B1B68DB08274AA2FB03231B0AA0
:1036100003EB8303C3EBC3030793079B013B0793B0
:10362000079B002B28D023685A6912F0040FF4D0AE
:103630001A6842F400721A6023681A69636A1A7081
:10364000636A01336362238D013B2385638D9BB2E3
:10365000013B9BB2638562B623681A69636A1A707C
:10366000636A01336362238D013B2385638D9BB2C3
:10367000013B9BB2638541E02363202284F83D2017
:1036800084F83E30226C42F02002226462B684F854
:103690003C300127F5E600BF020010000000FFFFEC
:1036A000040001009000002089B5F8142A46314634
:1036B0002046FFF70DFD00286FD123681A69636A61
:1036C0001A70626A531C6362238D013B2385638DEC
:1036D0009BB2013B9BB263852368596911F0040FCB
:1036E0000CD01B695370636A01336362238D013B05
:1036F0002385638D9BB2013B9BB26385238D002B99
:1037000036D0032BD2D8012B3FF444AF022B7FF4E9
:1037100059AF00953346002221492046FFF7DBFAD6
:10372000002836D172B62268136843F40073136020
:1037300023681A69636A1A70636A01336362238DAE
:10374000013B2385638D9BB2013B9BB2638562B6CF
:1037500023681A69636A1A70636A01336362238D8E
:10376000013B2385638D9BB2013B9BB26385C5E71B
:10377000202384F83D30002384F83E3084F83C3028
:103780007FE602277DE602277BE6012779E601270F
:1037900077E6012775E6012773E6012771E600BF8A
:1037A0000400010082B0084B1B68084AA2FB0323F7
:1037B0005B0A00FB03F3019300BF019B5A1E0192B9
:1037C000002BF9D102B0704790000020D34D621059
:1037D000002800F0F18170B582B00446036813F050
:1037E000010F2CD0994B5B6803F00C03042B1DD008
:1037F000964B5B6803F00C03082B12D06368B3F59B
:10380000803F41D0002B55D103F1804303F50433B1
:103810001A6822F480321A601A6822F480221A6030
:1038200037E08A4B5B6813F4803FE7D0874B1B6817
:1038300013F4003F03D06368002B00F0BF812368BE
:1038400013F0020F75D0814B5B6813F00C0F5FD043
:103850007E4B5B6803F00C03082B54D02369002BCC
:1038600000F08A807A4B01221A60FEF7F9FF0546C4
:10387000764B1B6813F0020F75D1FEF7F1FF401B6A
:103880000228F5D903209EE1704A136843F480337F
:103890001360636843B3FEF7E3FF05466B4B1B6899
:1038A00013F4003FCBD1FEF7DBFF401B6428F5D9B2
:1038B000032088E1B3F5A02F09D0644B1A6822F4E5
:1038C00080321A601A6822F480221A60E1E703F15C
:1038D0008043A3F53C331A6842F480221A601A68C8
:1038E00042F480321A60D4E7FEF7BAFF0546574B20
:1038F0001B6813F4003FA2D0FEF7B2FF401B642800
:10390000F5D903205FE1514B5B6813F4803FA5D1EB
:103910004E4B1B6813F0020F03D02369012B40F0BC
:103920004F814A4A136823F0F803616943EAC103EF
:103930001360236813F0080F33D0A369002B5CD009
:10394000434B0122C3F88024FEF78AFF05463F4B14
:103950005B6A13F0020F21D1FEF782FF401B0228A1
:10396000F5D903202FE1394A136823F0F803616980
:1039700043EAC1031360DCE7354B00221A60FEF70F
:103980006FFF0546314B1B6813F0020FD1D0FEF7D5
:1039900067FF401B0228F5D9032014E10120FFF73F
:1039A00001FF236813F0040F00F09680274BDB69BA
:1039B00013F0805F34D1254BDA6942F08052DA612E
:1039C000DB6903F080530193019B0125214B1B68A8
:1039D00013F4807F26D0E368012B3DD0002B53D118
:1039E00003F1804303F504331A6A22F001021A62DC
:1039F0001A6A22F004021A6233E0154B0022C3F85F
:103A00008024FEF72DFF0546104B5B6A13F0020F72
:103A1000C7D0FEF725FF401B0228F5D90320D2E0CE
:103A20000025D3E70B4A136843F480731360FEF755
:103A300017FF0646074B1B6813F4807FCBD1FEF7B8
:103A40000FFF801B6428F5D90320BCE00010024062
:103A500000004242007000405F4A136A43F00103D5
:103A60001362E36833B3FEF7FBFE06465A4B1B6A4C
:103A700013F0020F2FD1FEF7F3FE801B41F28833C3
:103A80009842F3D903209EE0052B09D0524B1A6AC5
:103A900022F001021A621A6A22F004021A62E0E7B6
:103AA0004D4B1A6A42F004021A621A6A42F001028D
:103AB0001A62D6E7FEF7D4FE0646474B1B6A13F0A0
:103AC000020F08D0FEF7CCFE801B41F288339842EB
:103AD000F3D9032077E0E5B9E369002B72D03E4AC1
:103AE000526802F00C02082A56D0022B17D03B4B2A
:103AF00000221A66FEF7B4FE0446374B1B6813F02B
:103B0000007F47D0FEF7ACFE001B0228F5D903204A
:103B100059E0314AD36923F08053D361DCE72F4B5E
:103B200000221A66FEF79CFE05462B4B1B6813F01D
:103B3000007F06D0FEF794FE401B0228F5D9032033
:103B400041E0236AB3F5803F1AD023494B6823F440
:103B50007413226A606A024313434B601F4B0122B5
:103B60001A66FEF77DFE04461B4B1B6813F0007FB0
:103B70000ED1FEF775FE001B0228F5D9032022E0C6
:103B8000154A536823F40033A1680B435360DCE704
:103B9000002018E0002016E0012B16D00E4B5B68C9
:103BA00003F48031226A914211D103F47013626AE6
:103BB00093420ED1002006E001207047012002E070
:103BC000012000E0002002B070BD0120FBE70120D1
:103BD000F9E70120F7E700BF001002400000424271
:103BE00086B0174B0FCB0DF1180C0CE90F0040F20B
:103BF0000123ADF80430134B5B6803F00C02082A74
:103C000002D0114806B07047C3F3834218326A44A9
:103C100012F8100C13F4803F0DD00A4B5B68C3F30D
:103C2000404318336B4413F8143C074A02FB00F07E
:103C3000B0FBF3F0E6E7054B03FB00F0E2E700BF63
:103C4000D8A800080010024000127A0000093D00C8
:103C5000002800F0A08070B50D460446524B1B684A
:103C600003F007038B420BD24F4A136823F007037C
:103C70000B431360136803F007038B4240F08D8001
:103C8000236813F0020F17D013F0040F04D0474A33
:103C9000536843F4E0635360236813F0080F04D0C3
:103CA000424A536843F460535360404A536823F0D8
:103CB000F003A1680B435360236813F0010F31D068
:103CC0006368012B20D0022B25D0384A126812F0ED
:103CD000020F64D035494A6822F0030213434B6057
:103CE000FEF7BEFD0646314B5B6803F00C036268CD
:103CF000B3EB820F16D0FEF7B3FD801B41F2883381
:103D00009842F0D9032045E0284A126812F4003F97
:103D1000E0D101203EE0254A126812F0007FD9D19F
:103D2000012037E0204B1B6803F00703AB420AD9A0
:103D30001D4A136823F007032B431360136803F035
:103D40000703AB422DD1236813F0040F06D0174AA6
:103D5000536823F4E063E1680B435360236813F076
:103D6000080F07D0114A536823F46053216943EACE
:103D7000C1035360FFF734FF0C4B5B68C3F30313BD
:103D80000B4AD35CD8400B4B18600B4B1868FEF7FE
:103D900023FD002070BD012070470120FAE70120BB
:103DA000F8E70120F6E700BF0020024000100240C3
:103DB000B4A800089000002098000020014B18686B
:103DC000704700BF9000002008B5FFF7F7FF044BD5
:103DD0005B68C3F30223034AD35CD84008BD00BF2D
:103DE00000100240C4A8000808B5FFF7E7FF044B25
:103DF0005B68C3F3C223034AD35CD84008BD00BF4D
:103E000000100240C4A8000870B4036A23F0010344
:103E10000362036A4668826922F073020C6844EA0E
:103E2000020523F002028B6813430D4CA04209D017
:103E30000B4CA0420DD0466085614A684263036224
:103E400070BC704723F00803CA68134323F00403CF
:103E5000EEE726F440764A6932438E691643EAE774
:103E6000002C014030B4036A23F480730362036AB8
:103E70004568C26922F073020C68224323F4007380
:103E80008C6843EA04230F4CA04209D00D4CA04299
:103E90000ED04560C2614A68C263036230BC70479D
:103EA00023F40063CC6843EA042323F48063EDE742
:103EB00025F440554C6945EA04158C6945EA04151A
:103EC000E7E700BF002C014030B4036A23F48053BD
:103ED0000362036A4468C26922F4E6420D6842EA5A
:103EE000052223F400538D6843EA0533074DA842A9
:103EF00006D04460C2614A680264036230BC704705
:103F000024F480444D6944EA8514F2E7002C014012
:103F100010B4036A046A24F001040462846924F082
:103F2000F00C4CEA021223F00A030B438261036295
:103F300010BC704710B4046A24F010040462846951
:103F4000036A24F4704C4CEA023223F0A00343EAE3
:103F500001138261036210BC7047836823F0700311
:103F60000B4343F0070383607047000090F83D3037
:103F7000DBB2012B27D1022380F83D300268D368E1
:103F800043F00103D3600368114A934210D0B3F1A8
:103F9000804F0DD0A2F59432934209D002F5806291
:103FA000934205D01A6842F001021A60002070475F
:103FB0009A6802F00702062A07D01A6842F0010246
:103FC0001A6000207047012070470020704700BF32
:103FD000002C01407047704770477047704710B51C
:103FE000044603681A6912F0020F11D0DA6812F061
:103FF000020F0DD06FF002021A61012303770368EC
:104000009B6913F0030F70D0FFF7E6FF00232377BF
:1040100023681A6912F0040F12D0DA6812F0040F44
:104020000ED06FF004021A610223237723689B6984
:1040300013F4407F5FD02046FFF7CEFF00232377A5
:1040400023681A6912F0080F12D0DA6812F0080F0C
:104050000ED06FF008021A61042323772368DB690E
:1040600013F0030F4ED02046FFF7B6FF002323774F
:1040700023681A6912F0100F12D0DA6812F0100FCC
:104080000ED06FF010021A61082323772368DB69D2
:1040900013F4407F3DD02046FFF79EFF0023237797
:1040A00023681A6912F0010F03D0DA6812F0010FC9
:1040B00036D123681A6912F0800F03D0DA6812F043
:1040C000800F34D123681A6912F0400F03D0DA68E8
:1040D00012F0400F32D123681A6912F0200F03D07A
:1040E000DA6812F0200F30D110BDFFF774FF2046C0
:1040F000FFF773FF8AE72046FFF76DFF2046FFF7C3
:104100006CFF9BE72046FFF766FF2046FFF765FF41
:10411000ACE72046FFF75FFF2046FFF75EFFBDE7F5
:104120006FF001021A612046FDF7BAF9C1E76FF09E
:1041300080021A61204600F053FBC3E76FF0400293
:104140001A612046FFF74AFFC5E76FF020021A61A7
:10415000204600F044FBC7E703681B4A90420AD0A0
:10416000B0F1804F07D0A2F59432904203D002F50F
:104170008062904203D123F070034A681343124ACD
:1041800090420AD0B0F1804F07D0A2F5943290420D
:1041900003D002F58062904203D123F44073CA68D1
:1041A000134323F080034A69134303608B68C3629F
:1041B0000B688362044B984202D00123436170472D
:1041C0000B690363F9E700BF002C014040B310B551
:1041D000044690F83D30F3B1022384F83D30214687
:1041E00051F8040BFFF7B8FF012384F8463084F838
:1041F0003E3084F83F3084F8403084F8413084F811
:10420000423084F8433084F8443084F8453084F8F0
:104210003D30002010BD80F83C30FEF7B1F8DBE700
:104220000120704740B310B5044690F83D30F3B11B
:10423000022384F83D30214651F8040BFFF78CFF30
:10424000012384F8463084F83E3084F83F3084F807
:10425000403084F8413084F8423084F8433084F8A8
:10426000443084F8453084F83D30002010BD80F89B
:104270003C30FFF7AFFEDBE701207047002857D046
:1042800070B50D46044690F83D30002B4BD002230C
:1042900084F83D302268936823F4804323F00703B9
:1042A0009360214651F8040BFFF756FF21688A6896
:1042B0008B690E6A2868104323F4407C2CF0030CB1
:1042C000AA68AB6942EA032343EA0C0323F47C4364
:1042D00023F0FC03EA69D5F80CC04CEA022C4CEA46
:1042E000030C2A6A13032A6943EA021343EA0C0304
:1042F00026F022066A686D6942EA05123243886038
:1043000021688B6123681A62012384F8463084F89F
:104310003E3084F83F3084F8423084F8433084F8EB
:104320003D30002070BD80F83C30FEF759F8AEE714
:104330000120704730B4036A23F010030362036A5C
:104340004468826922F4E6420D6842EA052223F0BD
:1043500020038D6843EA05130E4DA84209D00D4D88
:10436000A8420ED0446082614A688263036230BC16
:10437000704723F08003CD6843EA051323F0400320
:10438000EDE724F440644D6944EA85048D6944EA0C
:104390008504E7E7002C014038B590F83C30012B4C
:1043A00060D004460D46012380F83C300C2A1AD810
:1043B000DFE802F0071919191D191919311919190E
:1043C00044000068FFF720FD2268936943F008036A
:1043D00093612268936923F00403936122689369CF
:1043E00029690B439361002084F83C0038BD0068C4
:1043F000FFF7A0FF2268936943F40063936122688A
:10440000936923F48063936122689369296943EA7D
:1044100001239361E7E70068FFF724FD2268D36971
:1044200043F00803D3612268D36923F00403D36106
:104430002268D36929690B43D361D4E70068FFF789
:1044400043FD2268D36943F40063D3612268D369D2
:1044500023F48063D3612268D369296943EA012385
:10446000D361C0E70220C1E710B4846824F47F4C14
:1044700042EA03220A4342EA0C02826010BC7047FF
:1044800090F83C30012B66D010B50446012380F82B
:104490003C30022380F83D300268936823F47F4368
:1044A00023F0770393600B68602B40D022D8402B19
:1044B00047D00BD9502B0ED1CA6849680068FFF766
:1044C00027FD50212068FFF748FD04E0202B0CD089
:1044D00008D9302B09D0012384F83D30002084F81E
:1044E0003C0010BD0BB1102BF5D119462068FFF729
:1044F00034FDF0E7702B0ED0B3F5005FEBD1CB6845
:104500004A6889680068FFF7AFFF2268936843F440
:1045100080439360DFE7CB684A6889680068FFF7EB
:10452000A3FF2268936843F077039360D3E7CA68D8
:1045300049680068FFF7FEFC60212068FFF70DFD69
:10454000C9E7CA6849680068FFF7E2FC40212068B3
:10455000FFF703FDBFE70220704701F01F010123B1
:1045600003FA01FC036A23EA0C030362036A02FAFA
:1045700001F10B430362704710B50446084651BB76
:1045800094F83E30DBB2013B18BF0123002B5BD116
:10459000002839D1022384F83E30012201462068E8
:1045A000FFF7DBFF23682A4A93423DD02368284A5D
:1045B00093423ED0B3F1804F3BD0A2F59432934268
:1045C00037D002F58062934233D01A6842F001027C
:1045D0001A60002039E0042908D008290DD094F889
:1045E0004130DBB2013B18BF0123CFE794F83F30E5
:1045F000DBB2013B18BF0123C8E794F84030DBB2BF
:10460000013B18BF0123C1E7042805D0082807D0C3
:10461000022384F84130C0E7022384F83F30BCE72E
:10462000022384F84030B8E75A6C42F400425A64DE
:10463000BCE79A6802F00702062A07D01A6842F01F
:1046400001021A60002000E0012010BD0020FCE7FC
:10465000002C014038B5044690F83E00C0B294F8F2
:104660003F3094F84220D2B294F843C00D46B1B91D
:10467000012849D1012A48D1022384F83E3084F828
:1046800042307DB3042D39D0012200212068FFF78C
:1046900064FF012204212068FFF75FFF27E0DBB2FF
:1046A0005FFA8CFC042912D0012833D1012B2CD1C4
:1046B000012A31D1BCF1010F30D1022384F83E3000
:1046C00084F83F3084F8423084F84330D9E7012B36
:1046D0001CD1BCF1010F1BD1022384F83F3084F8B8
:1046E0004330CEE7012200212068FFF736FF226821
:1046F000136843F001031360002006E00122042147
:104700002068FFF72AFFF2E7012038BD0120FCE70F
:104710001846FAE70120F8E71846F6E71046F4E7EE
:1047200090F83C30012B2CD010B4012380F83C30A1
:10473000022380F83D3003685A689C6822F0700CB0
:104740000A6842EA0C025A6003680F4A93420AD090
:10475000B3F1804F07D0A2F59432934203D002F513
:104760008062934204D124F080044A6814439C6020
:10477000012380F83D30002380F83C30184610BCFF
:1047800070470220704700BF002C014090F83C3079
:10479000012B22D0012380F83C30CB6823F44073F6
:1047A0008A68134323F480634A68134323F4006345
:1047B0000A68134323F480530A69134323F4005314
:1047C0004A69134323F48043CA691343026853645C
:1047D000002380F83C30184670470220704770472D
:1047E00070470268D36823F49073D36002685369FA
:1047F00023F001035361036B012B05D0202380F8C4
:104800003E300023036370470268D36823F010032F
:10481000D360F3E790F83D30DBB2212B01D00220CA
:1048200070478368B3F5805F17D0036A5A1C026231
:104830001A7803685A60C38C9BB2013B9BB2C38455
:104840004BB90268D36823F08003D3600268D36851
:1048500043F04003D360002070470369002BE4D18C
:10486000036A1B880268C3F308035360036A0233B8
:104870000362E0E710B504460268136923F440536D
:10488000C1680B43136183680269134342691A4389
:104890000168CB6823F4B05323F00C031343CB60BF
:1048A0000268536923F4407381690B4353610268C2
:1048B000134B9A4220D0FFF787FA024602EB82029E
:1048C00002EB820263689B00B2FBF3F20D48A0FB8F
:1048D00002314909642303FB11231B013233A0FB7E
:1048E00003235B0903F0F00202EB011203F00F0354
:1048F000216813448B6010BDFFF776FA0246DDE7AE
:10490000003801401F85EB512DE9F84305460F465D
:1049100016469946DDF820802C68246837EA04039F
:104920000CBF4FF0010C4FF0000CB4451FD1B8F193
:10493000FF3FF1D0B8F1000F05D0FDF791FFA0EBDC
:1049400009004045E8D92A68D36823F4D073D360BE
:104950002A68536923F001035361202385F83D3011
:1049600085F83E30002385F83C30032000E000202D
:10497000BDE8F88358B310B5044690F83D300BB34A
:10498000242384F83D302268D36823F40053D36095
:104990002046FFF76FFF2268136923F490431361E9
:1049A0002268536923F02A0353612268D36843F4D1
:1049B0000053D36000202064202384F83D3084F825
:1049C0003E3010BD80F83C30FDF7C2FED8E7012034
:1049D00070472DE9F04182B01E4690F83D30DBB2C1
:1049E000202B54D104460D469046002953D0002A6E
:1049F00053D090F83C30012B51D0012380F83C304B
:104A000000230364212380F83D30FDF729FF07468A
:104A1000A4F82480A4F82680A368B3F5805F05D0AD
:104A20004FF00008002384F83C3012E0236913B1F2
:104A30004FF00008F6E7A8460025F3E738F8023BF8
:104A40002268C3F308035360E28C92B2013A92B237
:104A5000E284E38C9BB273B100963B460022802136
:104A60002046FFF751FFE0B9002DE7D015F8012BE4
:104A700023685A60E8E700963B4600224021204622
:104A8000FFF742FF78B9202384F83D3000E0022090
:104A900002B0BDE8F0810120FAE70120F8E702202A
:104AA000F6E70320F4E70320F2E72DE9F04182B0B6
:104AB0001E4690F83E30DBB2202B5CD104460D46FA
:104AC000904600295BD0002A5BD090F83C30012B47
:104AD00059D0012380F83C3000230364222280F85F
:104AE0003E200363FDF7BCFE0746A4F82C80A4F823
:104AF0002E80A368B3F5805F05D04FF00008002337
:104B000084F83C3017E0236913B14FF00008F6E752
:104B1000A8460025F3E723685B68C3F3080328F879
:104B2000023B03E023685B682B700135E28D92B293
:104B3000013A92B2E285E38D9BB2BBB100963B464F
:104B4000002220212046FFF7DFFEF0B9002DE2D041
:104B5000A368B3F5805FE5D013B92369002BE1D0DA
:104B600023685B6803F07F032B70DEE7202384F863
:104B70003E30002000E0022002B0BDE8F0810120BC
:104B8000FAE70120F8E70220F6E70320F4E7704790
:104B900008B50168CA6822F04002CA60202280F885
:104BA0003D20FFF7F4FF002008BD704708B5406ABC
:104BB0000023C385C384FFF7F8FF08BD704790F852
:104BC0003E30DBB2222B60D18368B3F5805F46D0E4
:104BD000826AB3F5805F04D0002B4DD10369002BAE
:104BE0004AD103685B681370836A01338362C38DA3
:104BF0009BB2013B9BB2C385002B48D100B583B06B
:104C00000268D36823F02003D3600268D36823F4DA
:104C10008073D3600268536923F00103536120233A
:104C200080F83E30036B012B2CD100230363026814
:104C3000D36823F01003D36003681A6812F0100FD2
:104C400006D0002201921A6801925B680193019BD1
:104C5000818DFFF7B3FF002003B05DF804FB02690C
:104C6000002AB5D1826A03685B68C3F30803138026
:104C7000836A02338362BAE703685B6803F07F03E9
:104C80001370B1E7FDF7C2FCE5E702207047002092
:104C90007047000030B583B0044602681368D068DE
:104CA000516913F00F0505D113F0200F02D010F059
:104CB000200F19D12DB111F0010119D110F4907FFD
:104CC00016D1216B012975D013F0800F03D010F09D
:104CD000800F40F0D78013F0400F03D010F0400F4A
:104CE00040F0D48003B030BD2046FFF768FFF9E7FD
:104CF00013F0010F06D010F4807F03D0226C42F035
:104D00000102226413F0040F04D019B1226C42F0A6
:104D10000202226413F0020F04D019B1226C42F097
:104D20000402226413F0080F07D010F0200F00D106
:104D300019B1226C42F008022264226C002AD1D000
:104D400013F0200F02D010F0200F21D123685B69EF
:104D500003F04003226C12F0080F00D123B3204669
:104D6000FFF73FFD23685A6912F0400F18D05A69C7
:104D700022F040025A61A36B73B1464A5A63A06B9A
:104D8000FDF71CFE0028ADD0A06B436B9847A9E748
:104D90002046FFF714FFD9E72046FFF706FFA1E7FB
:104DA0002046FFF702FF9DE72046FFF7FEFE0023A7
:104DB000236497E713F0100F86D010F0100F83D004
:104DC000002301931368019353680193019B536976
:104DD00013F0400F32D0A16B0B685B689BB2002BC5
:104DE00080D0A08D98427FF67DAFE3858B69202B24
:104DF00008D1A18DE38D9BB2C91A89B22046FFF775
:104E0000DDFE6FE7D36823F48073D36022685369B3
:104E100023F0010353612268536923F04003536177
:104E2000202384F83E30002323632268D36823F0D4
:104E30001003D360A06BFDF79FFDDAE7A18DE38D32
:104E40009BB2C91A89B2E38D9BB2002B3FF44AAFE3
:104E500000293FF447AFD36823F49073D3602268EE
:104E6000536923F001035361202384F83E3000236B
:104E700023632268D36823F01003D3602046FFF732
:104E80009DFE2FE72046FFF7C5FC2BE72046FFF7E6
:104E90007FFE27E7AD4B0008034681628285C2850D
:104EA00000201864222283F83E2083F83C00196811
:104EB000CA6842F48072CA6019684A6942F0010205
:104EC0004A611A68D36843F02003D360704708B57D
:104ED00090F83E30DBB2202B0DD171B17AB190F851
:104EE0003C30012B0DD0012380F83C3000230363BC
:104EF000FFF7D2FF00E0022008BD0120FCE70120FF
:104F0000FAE70220F8E700000C480D490D4A00239B
:104F100002E0D458C4500433C4188C42F9D30A4A6E
:104F20000A4C002301E013600432A242FBD3FDF7D8
:104F30001FF900F019F8FCF781FC70470000002011
:104F40004C0A0020A4AE0008500A0020981000204F
:104F5000FEE70000002101F0F3B900BF014B186823
:104F6000704700BF9C00002070B50D4E0D4D761BA4
:104F7000B61006D0002455F8043B01349847A642E9
:104F8000F9D1094E094D05F083FC761BB61006D009
:104F9000002455F8043B01349847A642F9D170BD6E
:104FA00098AE000898AE0008A0AE000898AE0008C1
:104FB000830730B548D0541E002A3FD00346CAB2FA
:104FC00001E0013C3AD303F8012B9D07F9D1032CF2
:104FD0002DD9CDB245EA05250F2C45EA054536D930
:104FE000A4F1100222F00F0C03F1200EE6444FEA68
:104FF000121C03F1100242E9045542E90255103235
:105000007245F8D10CF1010214F00C0F03EB0212FF
:1050100004F00F0C13D0ACF1040323F003030433AA
:10502000134442F8045B9342FBD10CF003042CB10F
:10503000CAB21C4403F8012B9C42FBD130BD64462C
:105040001346002CF4D1F9E703461446BFE71A468D
:10505000A446E0E730B5054689B008460C4600F0A6
:10506000A5F901210223214A04940692AA6B04ACFB
:105070000590084401940791AC680293039022B311
:10508000636E13F0010FB4F90C309AB201D1980598
:1050900025D5910406D4626E43F4005322F40052E5
:1050A000A3816266284601AA214601F023FC636EB3
:1050B000002814BF4FF0FF350A25DA0702D4A38970
:1050C0009B0506D5284609B030BD284601F01AFADE
:1050D000D6E7A06D02F0DAF9284609B030BDA06D20
:1050E00002F0D2F9B4F90C309AB2D2E7F0A8000875
:1050F000024B01461868FFF7ADBF00BF9C000020BF
:105100002DE9F043694C0E46D4F80080174604465A
:105110001D4683B0B8F1000F03D0D8F83830002B0B
:1051200077D0022F05D0012F00F2AC80002DC0F205
:10513000A980636EDA0752D52146404601F0AEF9E8
:10514000216B41B104F14003994202D0404601F085
:10515000D1FA002323630023B4F90CC0A3611CF02F
:10516000800F636064D12CF44A6C2CF0030C022F86
:10517000A4F80CC06AD001AB214640466A4602F052
:10518000F7F9A3891843A081002D2FD0002E2ED02F
:10519000D8F83830002B38D0009BC4E90465AB4206
:1051A000B4F90C3026601CBF43F40063A381012FC7
:1051B00004BF43F00103A3819AB213F008032CD07B
:1051C000D1075DD500216D42A561656EA16015F026
:1051D000010527D00025284603B0BDE8F083A38948
:1051E0009B05A9D4A06D02F04FF9A5E7009D2846C4
:1051F00002F0EEF90646002847D0A38943F0800369
:10520000A381D8F83830002BC6D1404601F07AF996
:10521000C2E7404601F076F983E7A360656E15F0BA
:105220000105D7D1930524D5284603B0BDE8F08306
:105230004046216901F05EFAB4F90CC0022F2CF44B
:105240004A6C2CF0030CA4F80CC094D1002500216A
:10525000012204F1430323602361636E4CF0020CCE
:10526000D807A4F80CC0A1606261DDD41CF4007FF3
:10527000DAD1A06D02F00AF9284603B0BDE8F08348
:10528000A560CBE74FF0FF35CEE7DDF80090A945EC
:1052900004D0484602F09CF9064620B94FF0FF358D
:1052A000B4F90CC0D3E74D46A7E700BF9C0000202F
:1052B000830710B5044610D10268A2F1013323EA36
:1052C000020313F0803F08D150F8042FA2F10133FC
:1052D00023EA020313F0803FF6D003781BB110F8E5
:1052E000013F002BFBD100F003F8204610BD00BFAA
:1052F00080EA0102844612F0030F4FD111F0030F30
:1053000032D14DF8044D11F0040F51F8043B0BD08D
:10531000A3F101329A4312F0803F04BF4CF8043BE2
:1053200051F8043B16D100BF51F8044BA3F10132F0
:105330009A4312F0803FA4F101320BD14CF8043BA8
:10534000A24312F0803F04BF51F8043B4CF8044BD9
:10535000EAD023460CF8013B13F0FF0F4FEA33234A
:10536000F8D15DF8044B704711F0010F06D011F829
:10537000012B0CF8012B002A08BF704711F0020F17
:10538000BFD031F8022B12F0FF0F16BF2CF8022B02
:105390008CF8002012F47F4FB3D1704711F8012B25
:1053A0000CF8012B002AF9D1704700BF20F003014F
:1053B00010F00300C0F1000051F8043B00F1040CB0
:1053C0004FEACC0C6FF000021CBF22FA0CF2134320
:1053D0004FF0010C4CEA0C2C4CEA0C4CA3EB0C02E9
:1053E00022EA030212EACC1204BF51F8043B043053
:1053F000F4D0C2F1000102EA0102B2FA82F2C2F173
:105400001F0200EBD20070472DE9F04F00258246C5
:105410009748A1B00068884607921C4608901C95E2
:10542000FFF7C4FF0021834600204246CDE9040176
:10543000CDF86C80174612F8013B2D2B2FD8DFE8F2
:1054400013F0A0002E002E002E002E002E002E00A5
:105450002E002E00AD00AD00AD00AD00AD002E0061
:105460002E002E002E002E002E002E002E002E00CC
:105470002E002E002E002E002E002E002E002E00BC
:105480002E00AD002E002E002E002E002E002E002D
:105490002E002E002E002E0002042E00F803002203
:1054A0000992302B7CD000220B922F2B1C4640F20D
:1054B00029854FF0000938464E464D4612E001302E
:1054C000082D1B90C8BF09EB89090478C6BF03EB00
:1054D0004903A3F13009A2F130062F2C234605F130
:1054E00001056EDD06EB8602392C03EB4202E6DD98
:1054F0005A46089903F06AFB002835D11B9B1A46CF
:105500005B441B9312F80B40002D40F0A885302C13
:1055100040F06085C3F10102981801331B931C7899
:10552000302CF9D0A4F13103082B00F23583A4F11B
:10553000300E1B9C00230125274600F1010B0A9326
:10554000002006EB86060EEB4606631C1B93647870
:10555000A4F13001092900F2E9828E4601300029C8
:1055600040F0AF841B9CF0E70020652C8346844606
:105570000A9501D0452C30D1002D7ED10B9B0343E1
:105580007AD14FF0000B079BD94613B1079BC3F8A4
:1055900000805846494621B0BDE8F08F1B9249E78C
:1055A0007B7803F0DF03582B00F06D8401371B97E5
:1055B0003B78302BFAD0002B00F0CE8001220B92EA
:1055C00073E75A46089903F001FB002800F0D780E2
:1055D0000A954FF0000B5846DC4600230C93002D33
:1055E00000F096800A9A30461346002A08BF2B46E0
:1055F0000A93FAF7EFFE02460B46DDF830C0102D95
:105600002C46ACEB0B0CA8BF1024092DCDE90423CC
:10561000CDF82CC014DD174B03EBC40353E9122360
:10562000FAF752FF0246484690468946FAF7D2FEFC
:1056300002460B4640464946FAF790FDCDE9040183
:105640000F2D00F3A5800B9B002B00F00F840B9B0C
:1056500040F38A83162B40F3F4840B9AC5F125039B
:10566000934280F207850B9B2C1B1C4496E000BFE5
:10567000F8AA0008B8AB00080025DDF86C8008F136
:1056800001031B9398F801402B2C00F082822D2CF3
:1056900000F01B824FF0000EA4F13003092B00F242
:1056A0000F82302C05D11B9B01331B931C78302CAF
:1056B000FAD0A4F13103082B8FD81B9AA4F1300142
:1056C000531C1B93547808922F2C09DC00F029BC42
:1056D0001C4601331B936478A2F130012F2C05DDA9
:1056E00001EB8102392C04EB4202F1DD089A9B1A8E
:1056F000082B40F3168444F61F630C93BEF1000F91
:105700003FF46DAF0C9B5B420C93002D7FF46AAFAE
:105710000B9B034320D1BCF1000F7FF432AF692C07
:1057200000F01B8400F33983492C00F016844E2CC2
:105730007FF427AFAA491BA801F0ACFD00283FF475
:1057400020AF1B9B1B78282B00F07385A54803F026
:10575000DFF98346894602E04FF0000BD946079AED
:105760000AB11B9B1360099B002B3FF412AF09F198
:10577000004399465846494621B0BDE8F08F1B9B2F
:105780000A9503EB0B021B9213F80B408346DFE6EE
:105790000B9B2C1B1C44002C40F3048314F00F00C3
:1057A0000AD0DDE90423904901EBC001D1E90001F1
:1057B000FAF78AFECDE9040134F00F0340F0868247
:1057C000002308932B46394650460A9A009602F069
:1057D0001BFB1390002800F04E830C9BABEB0301E6
:1057E0000B9B002BB4BF0A4600220E920022934668
:1057F000904623EAE3731293139C5046616802F0CB
:1058000081FA0746002800F04081226904F10C016A
:10581000023292000C30FBF7C7FBDDE904010C46B5
:1058200011911EA901911DA902460A9023465046D6
:10583000009102F08DFE1C90002800F016810121DD
:10584000504602F087FB8046002800F01E811D9B19
:10585000002BC0F20D810E9A129D9E18089A1E9C74
:105860009B1A2344614A013B9342C4F1360480F2FF
:10587000AE80D21A1F2A4FF00109A4EB020400F3F4
:105880001981002309FA02F90C93089B254434443A
:10589000A6421D443346A8BF2346AB42A8BF2B46B1
:1058A000002B02DDE41AED1AF61A0E9B002B00F312
:1058B000BC80002C00F3D0800B9B002B00F3DC801D
:1058C000002D00F3ED80002E08DD414632465046A3
:1058D00002F078FC8046002800F0D7803A46504617
:1058E0001C9902F005FD8346002800F0CE800026BA
:1058F000C3684146C6600F9302F0DAFCB042C0F2C2
:10590000678400F0CE834146584602F083FE0022B1
:105910004FF0804304460D46FBF752F800286DD047
:105920000F9B002B00F0DD8000223546059B304C9C
:1059300010932F4BCDE90C232E4E109A2E4B02EADA
:105940000609994500F0F880089B93B1B9F1D46F2E
:105950000FD821A3D3E9002328462146FBF730F8CE
:10596000002840F084810D9B03F1D663A3EB09036B
:105970000D93119E0A983146DDE90C23CDE90423ED
:1059800002F05CFD02460B46DDE90401FAF79CFDDE
:1059900033460A9AFAF7E2FB0E46CDE90401089B6A
:1059A00023B9144B3340994500F0FF8050461C99B1
:1059B00002F0CEF93946504602F0CAF94146504647
:1059C00002F0C6F95946504602F0C2F914E7002326
:1059D0004FF001090C9358E70000C0FFFFFFDF41C3
:1059E00000A90008E8A80008B8AB000802FCFFFF07
:1059F0000000F03F0000F07F0000E07F20462946D5
:105A00000022AB4BFAF760FD0F9B024605460C46A1
:105A1000002B62D101F1004314901593059B109364
:105A2000DDE91423CDE90C2386E741461A465046AA
:105A300002F06CFB804640B301461C9A504602F0CF
:105A4000B7FA10B30F901C99504602F081F90F9BE2
:105A5000002C1C937FF730AF224650461C9902F071
:105A6000B1FB1C9000287FF427AF5E460B970FE038
:105A7000129A0E9ED51AF1E639465046129A02F055
:105A800045FB074600287FF41BAF5E460B971C982A
:105A900022234FF0000BDFF81C92CAF80030B3E06D
:105AA00039462A46504602F08DFB074600287FF40F
:105AB0000AAFEAE7804AD31A09FA03F30C93E4E643
:105AC0000023CDF86C800C9389E54FF0010E08F1AE
:105AD00002031B9398F80240DEE50B46CDE9142340
