:020000040800F2
:100000000050002069470008491F00084B1F0008E6
:100010004D1F00084F1F0008511F0008000000007E
:10002000000000000000000000000000531F000856
:10003000551F000800000000571F0008591F000846
:10004000B1470008B1470008B1470008B1470008B0
:10005000B1470008B1470008B1470008B1470008A0
:10006000B1470008B1470008B1470008B147000890
:10007000B1470008B1470008B1470008B147000880
:10008000B1470008B1470008B1470008B147000870
:10009000B1470008B1470008B1470008B147000860
:1000A000B1470008B1470008B1470008B147000850
:1000B000611F0008711F0008811F0008B147000878
:1000C000B1470008B1470008B1470008B147000830
:1000D000B1470008B1470008B1470008B147000820
:1000E000911F0008B1470008B14700080000000058
:1000F0000000000000000000000000000000000000
:0C01000000000000000000005FF808F1A3
:1001100010B5054C237833B9044B13B10448AFF341
:1001200000800123237010BD480A00200000000059
:10013000B8B0000808B5034B1BB103490348AFF33F
:10014000008008BD000000004C0A0020B8B0000884
:1001500081F0004102E000BF83F0004330B54FEA78
:1001600041044FEA430594EA050F08BF90EA020FE5
:100170001FBF54EA000C55EA020C7FEA645C7FEA78
:10018000655C00F0E2804FEA5454D4EB5555B8BF9B
:100190006D420CDD2C4480EA020281EA030382EA0C
:1001A000000083EA010180EA020281EA0303362D9E
:1001B00088BF30BD11F0004F4FEA01314FF4801C71
:1001C0004CEA113102D0404261EB410113F0004F83
:1001D0004FEA03334CEA133302D0524263EB43033A
:1001E00094EA050F00F0A780A4F10104D5F1200ED8
:1001F0000DDB02FA0EFC22FA05F2801841F1000133
:1002000003FA0EF2801843FA05F359410EE0A5F106
:1002100020050EF1200E012A03FA0EFC28BF4CF037
:10022000020C43FA05F3C01851EBE37101F00045ED
:1002300007D54FF0000EDCF1000C7EEB00006EEBFA
:100240000101B1F5801F1BD3B1F5001F0CD3490884
:100250005FEA30004FEA3C0C04F101044FEA4452DB
:1002600012F5800F80F09A80BCF1004F08BF5FEA62
:10027000500C50F1000041EB045141EA050130BD42
:100280005FEA4C0C404141EB0101013C28BFB1F554
:10029000801FE9D291F0000F04BF01460020B1FA9F
:1002A00081F308BF2033A3F10B03B3F120020CDA72
:1002B0000C3208DD02F1140CC2F10C0201FA0CF050
:1002C00021FA02F10CE002F11402D8BFC2F1200CB5
:1002D00001FA02F120FA0CFCDCBF41EA0C0190406B
:1002E000E41AA2BF01EB0451294330BD6FEA0404B4
:1002F0001F3C1CDA0C340EDC04F11404C4F120029F
:1003000020FA04F001FA02F340EA030021FA04F3B0
:1003100045EA030130BDC4F10C04C4F1200220FA07
:1003200002F001FA04F340EA0300294630BD21FA45
:1003300004F0294630BD94F0000F83F4801306BF0B
:1003400081F480110134013D4EE77FEA645C18BFFF
:100350007FEA655C29D094EA050F08BF90EA020F96
:1003600005D054EA000C04BF1946104630BD91EA8E
:10037000030F1EBF0021002030BD5FEA545C05D191
:100380004000494128BF41F0004130BD14F58004D0
:100390003CBF01F5801130BD01F0004545F0FE4144
:1003A00041F470014FF0000030BD7FEA645C1ABF79
:1003B000194610467FEA655C1CBF0B46024650EAB0
:1003C000013406BF52EA033591EA030F41F40021DC
:1003D00030BD00BF90F0000F04BF0021704730B562
:1003E0004FF4806404F132044FF000054FF0000137
:1003F00050E700BF90F0000F04BF0021704730B5F8
:100400004FF4806404F1320410F0004548BF4042CC
:100410004FF000013EE700BF42004FEAE2014FEA21
:1004200031014FEA02701FBF12F07F4393F07F4FFC
:1004300081F06051704732F07F4208BF704793F0FF
:100440007F4F04BF41F40021704730B54FF4607412
:1004500001F0004521F000411CE700BF50EA010215
:1004600008BF704730B54FF000050AE050EA0102BE
:1004700008BF704730B511F0004502D5404261EB2E
:1004800041014FF4806404F132045FEA915C3FF46F
:10049000D8AE4FF003025FEADC0C18BF03325FEA0C
:1004A000DC0C18BF033202EBDC02C2F1200300FABD
:1004B00003FC20FA02F001FA03FE40EA0E0021FAE2
:1004C00002F11444BDE600BF70B54FF0FF0C4CF4D0
:1004D000E06C1CEA11541DBF1CEA135594EA0C0F82
:1004E00095EA0C0F00F0DEF82C4481EA030621EABD
:1004F0004C5123EA4C5350EA013518BF52EA0335F8
:1005000041F4801143F4801338D0A0FB02CE4FF0A9
:100510000005E1FB02E506F00042E0FB03E54FF0D9
:100520000006E1FB03569CF0000F18BF4EF0010ED1
:10053000A4F1FF04B6F5007F64F5407404D25FEACD
:100540004E0E6D4146EB060642EAC62141EA555180
:100550004FEAC52040EA5E504FEACE2EB4F1FD0CC2
:1005600088BFBCF5E06F1ED8BEF1004F08BF5FEA40
:10057000500E50F1000041EB045170BD06F00046F2
:1005800046EA010140EA020081EA0301B4EB5C049F
:10059000C2BFD4EB0C0541EA045170BD41F4801197
:1005A0004FF0000E013C00F3AB8014F1360FDEBFBC
:1005B000002001F0004170BDC4F10004203C35DA98
:1005C0000C341BDC04F11404C4F1200500FA05F31B
:1005D00020FA04F001FA05F240EA020001F00042BC
:1005E00021F0004110EBD37021FA04F642EB060132
:1005F0005EEA430E08BF20EAD37070BDC4F10C045C
:10060000C4F1200500FA04F320FA05F001FA04F21F
:1006100040EA020001F0004110EBD37041F100010B
:100620005EEA430E08BF20EAD37070BDC4F1200516
:1006300000FA05F24EEA020E20FA04F301FA05F27E
:1006400043EA020321FA04F001F0004121FA04F226
:1006500020EA020000EBD3705EEA430E08BF20EAF6
:10066000D37070BD94F0000F0FD101F00046400030
:1006700041EB010111F4801F08BF013CF7D041EAB2
:10068000060195F0000F18BF704703F000465200B6
:1006900043EB030313F4801F08BF013DF7D043EA87
:1006A0000603704794EA0C0F0CEA135518BF95EA3D
:1006B0000C0F0CD050EA410618BF52EA4306D1D1C4
:1006C00081EA030101F000414FF0000070BD50EAE3
:1006D000410606BF1046194652EA430619D094EA6D
:1006E0000C0F02D150EA013613D195EA0C0F05D157
:1006F00052EA03361CBF104619460AD181EA0301AB
:1007000001F0004141F0FE4141F470014FF0000062
:1007100070BD41F0FE4141F4780170BD70B54FF0FD
:10072000FF0C4CF4E06C1CEA11541DBF1CEA13557D
:1007300094EA0C0F95EA0C0F00F0A7F8A4EB05045F
:1007400081EA030E52EA03354FEA013100F0888056
:100750004FEA03334FF0805545EA131343EA12631F
:100760004FEA022245EA111545EA10654FEA0026D4
:100770000EF000419D4208BF964244F1FD0404F58D
:10078000407402D25B084FEA3202B61A65EB0305E9
:100790005B084FEA32024FF480104FF4002CB6EBA6
:1007A000020E75EB030E22BFB61A754640EA0C0026
:1007B0005B084FEA3202B6EB020E75EB030E22BF66
:1007C000B61A754640EA5C005B084FEA3202B6EBA7
:1007D000020E75EB030E22BFB61A754640EA9C0066
:1007E0005B084FEA3202B6EB020E75EB030E22BF36
:1007F000B61A754640EADC0055EA060E18D04FEAF4
:10080000051545EA16754FEA06164FEAC30343EA93
:1008100052734FEAC2025FEA1C1CC0D111F4801F60
:100820000BD141EA00014FF000004FF0004CB6E759
:1008300011F4801F04BF01430020B4F1FD0C88BFF8
:10084000BCF5E06F3FF6AFAEB5EB030C04BFB6EB03
:10085000020C5FEA500C50F1000041EB045170BDF6
:100860000EF0004E4EEA113114EB5C04C2BFD4EB23
:100870000C0541EA045170BD41F480114FF0000EA7
:10088000013C90E645EA060E8DE60CEA135594EA23
:100890000C0F08BF95EA0C0F3FF43BAF94EA0C0F26
:1008A0000AD150EA01347FF434AF95EA0C0F7FF49B
:1008B00025AF104619462CE795EA0C0F06D152EAEF
:1008C00003353FF4FDAE1046194622E750EA4106D3
:1008D00018BF52EA43067FF4C5AE50EA41047FF4E4
:1008E0000DAF52EA43057FF4EBAE12E74FF0FF3C49
:1008F00006E000BF4FF0010C02E000BF4FF0010C1A
:100900004DF804CD4FEA410C7FEA6C5C4FEA430C92
:1009100018BF7FEA6C5C1BD001B050EA410C0CBFE1
:1009200052EA430C91EA030F02BF90EA020F002043
:10093000704710F1000F91EA030F58BF994208BFAA
:1009400090422CBFD8176FEAE37040F00100704767
:100950004FEA410C7FEA6C5C02D150EA013C07D1BE
:100960004FEA430C7FEA6C5CD6D152EA033CD3D009
:100970005DF8040B704700BF8446104662468C4603
:100980001946634600E000BF01B5FFF7B7FF002836
:1009900048BF10F1000F01BD4DF808EDFFF7F4FF5F
:1009A0000CBF012000205DF808FB00BF4DF808EDEA
:1009B000FFF7EAFF34BF012000205DF808FB00BF0D
:1009C0004DF808EDFFF7E0FF94BF012000205DF82F
:1009D00008FB00BF4DF808EDFFF7CEFF94BF0120E4
:1009E00000205DF808FB00BF4DF808EDFFF7C4FFDD
:1009F00034BF012000205DF808FB00BF4FEA410230
:100A000012F5001215D211D56FF47873B3EB625260
:100A100012D94FEAC12343F0004343EA505311F087
:100A2000004F23FA02F018BF404270474FF0000019
:100A3000704750EA013005D111F0004008BF6FF057
:100A4000004070474FF00000704700BF80F000404A
:100A500002E000BF81F0004142001FBF5FEA410396
:100A600092EA030F7FEA226C7FEA236C6AD04FEA96
:100A70001262D2EB1363C1BFD218414048404140DB
:100A8000B8BF5B42192B88BF704710F0004F40F48D
:100A9000000020F07F4018BF404211F0004F41F4A9
:100AA000000121F07F4118BF494292EA030F3FD075
:100AB000A2F1010241FA03FC10EB0C00C3F1200388
:100AC00001FA03F100F0004302D5494260EB400017
:100AD000B0F5000F13D3B0F1807F06D340084FEA82
:100AE000310102F10102FE2A51D2B1F1004F40EB77
:100AF000C25008BF20F0010040EA030070474900DF
:100B000040EB0000013A28BFB0F5000FEDD2B0FA7B
:100B100080FCACF1080CB2EB0C0200FA0CF0AABF9E
:100B200000EBC25052421843BCBFD040184370473C
:100B300092F0000F81F4000106BF80F40000013242
:100B4000013BB5E74FEA41037FEA226C18BF7FEA19
:100B5000236C21D092EA030F04D092F0000F08BF5B
:100B60000846704790EA010F1CBF0020704712F042
:100B70007F4F04D1400028BF40F00040704712F181
:100B800000723CBF00F50000704700F0004343F0E6
:100B9000FE4040F4000070477FEA226216BF08461C
:100BA0007FEA23630146420206BF5FEA412390EADF
:100BB000010F40F4800070474FF0000304E000BFD5
:100BC00010F0004348BF40425FEA000C08BF704786
:100BD00043F0964301464FF000001CE050EA01024A
:100BE00008BF70474FF000030AE000BF50EA01025F
:100BF00008BF704711F0004302D5404261EB41014C
:100C00005FEA010C02BF84460146002043F0B64370
:100C100008BFA3F18053A3F50003BCFA8CF2083A95
:100C2000A3EBC25310DB01FA02FC634400FA02FC9E
:100C3000C2F12002BCF1004F20FA02F243EB0200A5
:100C400008BF20F00100704702F1200201FA02FC07
:100C5000C2F1200250EA4C0021FA02F243EB0200FA
:100C600008BF20EADC7070474FF0FF0C1CEAD0523E
:100C70001EBF1CEAD15392EA0C0F93EA0C0F6FD0FF
:100C80001A4480EA010C400218BF5FEA41211ED0DD
:100C90004FF0006343EA501043EA5111A0FB0131C9
:100CA0000CF00040B1F5000F3EBF490041EAD3719E
:100CB0005B0040EA010062F17F02FD2A1DD8B3F11A
:100CC000004F40EBC25008BF20F00100704790F089
:100CD000000F0CF0004C08BF49024CEA502040EADB
:100CE00051207F3AC2BFD2F1FF0340EAC2507047A1
:100CF00040F400004FF00003013A5DDC12F1190FDF
:100D0000DCBF00F000407047C2F10002410021FA50
:100D100002F1C2F1200200FA02FC5FEA310040F168
:100D2000000053EA4C0308BF20EADC70704792F0E1
:100D3000000F00F0004C02BF400010F4000F013A19
:100D4000F9D040EA0C0093F0000F01F0004C02BF14
:100D5000490011F4000F013BF9D041EA0C018FE783
:100D60000CEAD15392EA0C0F18BF93EA0C0F0AD089
:100D700030F0004C18BF31F0004CD8D180EA0100AF
:100D800000F00040704790F0000F17BF90F0004F48
:100D9000084691F0000F91F0004F14D092EA0C0F2A
:100DA00001D142020FD193EA0C0F03D14B0218BFBD
:100DB000084608D180EA010000F0004040F0FE4003
:100DC00040F40000704740F0FE4040F4400070479F
:100DD0004FF0FF0C1CEAD0521EBF1CEAD15392EA1E
:100DE0000C0F93EA0C0F69D0A2EB030280EA010C0E
:100DF00049024FEA402037D04FF0805343EA1111A7
:100E000043EA10130CF000408B4238BF5B0042F104
:100E10007D024FF4000C8B4224BF5B1A40EA0C00A9
:100E2000B3EB510F24BFA3EB510340EA5C00B3EBDB
:100E3000910F24BFA3EB910340EA9C00B3EBD10FC9
:100E400024BFA3EBD10340EADC001B0118BF5FEA1B
:100E50001C1CE0D1FD2A3FF650AF8B4240EBC25044
:100E600008BF20F0010070470CF0004C4CEA502005
:100E70007F32C2BFD2F1FF0340EAC250704740F454
:100E800000004FF00003013A37E792F0000F00F046
:100E9000004C02BF400010F4000F013AF9D040EAC4
:100EA0000C0093F0000F01F0004C02BF490011F458
:100EB000000F013BF9D041EA0C0195E70CEAD15350
:100EC00092EA0C0F08D142027FF47DAF93EA0C0F37
:100ED0007FF470AF084676E793EA0C0F04D14B021B
:100EE0003FF44CAF08466EE730F0004C18BF31F0CD
:100EF000004CCAD130F000427FF45CAF31F00043C7
:100F00007FF43CAF5FE700BF844641EA000313F083
:100F1000030349D1403A23D30B6803604B68436015
:100F20008B688360CB68C3600B6903614B69436165
:100F30008B698361CB69C3610B6A03624B6A43624D
:100F40008B6A8362CB6AC3620B6B03634B6B436335
:100F50008B6B8363CB6BC36340304031403ADBD251
:100F600030320BD30B6803604B6843608B6883603F
:100F7000CB68C36010301031103AF3D20C3205D375
:100F800051F8043B40F8043B043AF9D2043208D04B
:100F9000D2071CBF11F8013B00F8013B01D30B88BD
:100FA00003806046704700BF082A13D38B07B1D077
:100FB00010F00303AED0C3F10403D21ADB071CBF49
:100FC00011F8013B00F8013BA4D331F8023B20F8B3
:100FD000023B9FE7043AD9D3013A11F8013B00F8EC
:100FE000013BF9D20B7803704B7843708B78837098
:100FF000604670474FEA410C7FEA6C5C02D150EAD0
:10100000013C0AD14FEA430C7FEA6C5C02D152EA00
:10101000033C02D14FF0000070474FF001007047D1
:1010200053B94AB9002908BF00281CBF4FF0FF314F
:101030004FF0FF3000F076B9ADF1080C6DE904CE49
:1010400000F006F8DDF804E0DDE9022304B07047A3
:101050002DE9F047089E0D4604468846002B4DD1E9
:101060008A42944668D9B2FA82F252B101FA02F386
:10107000C2F1200120FA01F10CFA02FC41EA030856
:1010800094404FEA1C41B8FBF1F71FFA8CFE01FBBC
:10109000178807FB0EF0230C43EA084398420AD94D
:1010A0001CEB030307F1FF3580F01E81984240F2EC
:1010B0001B81023F63441B1AB3FBF1F001FB1033A9
:1010C00000FB0EFEA4B244EA0344A6450AD91CEB79
:1010D000040400F1FF3380F00981A64540F2068147
:1010E000644402380021A4EB0E0440EA07401EB11C
:1010F0000023D440C6E90043BDE8F0878B4208D9FD
:10110000002E00F0EE800021C6E900050846BDE88B
:10111000F087B3FA83F100294AD1AB4202D382426D
:1011200000F2FC80841A65EB030301209846002E30
:10113000E2D0C6E90048DFE702B9FFDEB2FA82F288
:10114000002A40F09180A1EB0C0001214FEA1C47DE
:101150001FFA8CFEB0FBF7F307FB1300250C45EAE2
:1011600000450EFB03F0A84208D91CEB050503F16E
:10117000FF3802D2A84200F2CE8043462D1AB5FBBA
:10118000F7F007FB10550EFB00FEA4B244EA05443D
:10119000A64508D91CEB040400F1FF3502D2A64590
:1011A00000F2B6802846A4EB0E0440EA03409EE716
:1011B000C1F120078B4022FA07FC4CEA030C25FA08
:1011C00007FA4FEA1C49BAFBF9F820FA07F309FBC2
:1011D00018AA8D401FFA8CFE1D4300FA01F308FB8C
:1011E0000EF02C0C44EA0A44A04202FA01F20BD998
:1011F0001CEB040408F1FF3A80F08880A04240F222
:101200008580A8F102086444241AB4FBF9F009FBB4
:10121000104400FB0EFEADB245EA0444A64508D9D1
:101220001CEB040400F1FF356CD2A6456AD90238E4
:10123000644440EA0840A0FB0295A4EB0E04AC42D3
:10124000C846AE4656D353D0002E69D0B3EB080241
:1012500064EB0E0422FA01F304FA07F71F43CC40B3
:10126000C6E90074002147E70CFA02FCC2F1200134
:1012700025FA01F34FEA1C4720FA01F195400D438E
:10128000B3FBF7F107FB11331FFA8CFE280C40EA81
:10129000034001FB0EF3834204FA02F408D91CEB6D
:1012A000000001F1FF382FD283422DD9023960446A
:1012B000C01AB0FBF7F307FB1300ADB245EA0045D7
:1012C00003FB0EF0A84208D91CEB050503F1FF381B
:1012D00016D2A84214D9023B6544281A43EA0141B8
:1012E00038E73146304607E72F46E4E61846F9E688
:1012F0004B45A9D2B9EB020865EB0C0E0138A3E708
:101300004346EAE7284694E74146D1E7D0467BE7E3
:101310006444023847E7023B65442FE7084606E786
:101320003146E9E6704700BF08B53C21054802F0A8
:10133000C5FF3C21044802F0C1FF044802F04AFC0A
:1013400008BD00BF540C0020E40C00209C0C0020C1
:101350000C4B834200D0704770B50B4B1E68706A0F
:101360000A4B1D686C6A24B200B2FFF729FC084BD7
:1013700018602046FFF724FC064B186000237362B8
:101380006B6270BD9C0C0020540C0020E40C00200B
:10139000640A0020680A0020044B1B6803F1004324
:1013A0000360034B1B680B60704700BF640A00209A
:1013B000680A00202DE9F04188B0002404940594C7
:1013C00006940794334B9A6942F010029A619A6925
:1013D00002F010020092009A9A6942F020029A618B
:1013E0009A6902F020020192019A9A6942F004027D
:1013F0009A619A6902F004020292029A9A6942F092
:1014000008029A619B6903F008030393039BDFF8CA
:10141000888022464FF40051404601F061FA1F4D8A
:1014200022464FF20201284601F05AFA4FF40053C7
:1014300004930127059706940226079604A94046BF
:1014400001F03CF94FF202030493059706940796C6
:1014500004A9284601F032F9042304930594069464
:1014600004A9284601F02AF94FF4805304930C4B49
:101470000593069404A90B4801F020F92246214661
:10148000282001F0C1F8282001F0F6F808B0BDE8E6
:10149000F08100BF0010024000100140000C01402C
:1014A000000011100008014008B50B480B4B036009
:1014B0000B4B436000238360C3604FF480420261A2
:1014C00043618361C361036201F06CFC00B908BD34
:1014D00000F0C2F8FBE700BF6C0A00200054004097
:1014E000801A060010B586B000230293039304937C
:1014F00005930268154B9A4201D006B010BD144CFA
:10150000A36943F00803A361A36903F008030093F0
:10151000009B4FF44073029312230393032305931C
:1015200002A90C4801F0CAF80B4A536843F0E06383
:1015300043F002035360E36943F40013E361E3699A
:1015400003F400130193019BD7E700BF0054004050
:1015500000100240000C0140000001400C4B0D4AFD
:101560001A604FF4804199809A604FF4004199814C
:101570009A614FF4805199831A624FF400529A8411
:10158000054A1A61002159619A620C22DA62704799
:10159000C00B0020000C01400C0C002000000000DB
:1015A0002DE9F00FDFF898C00022264BCCE900238C
:1015B00000220023CCE9022300202349CCE90401C6
:1015C0000026224FCCE90A670024214DCCE90C45C6
:1015D00015A1D1E90001CCE90E010FF25409D9E9B6
:1015E0000089CCE91089CCE90623CCE90823DFF88F
:1015F00064C00FF2440BDBE900ABCCE900ABCCE9F3
:101600000223CCE90423CCE90A67CCE90C45CCE9F8
:101610000E01CCE91089CCE90623CCE90823BDE80A
:10162000F00F7047AFF30080000000000020BC40C6
:10163000000000000020BCC00000000000E085C0E9
:10164000C80A002000807640000099400080864053
:10165000008086C0700B002072B6FEE700B591B026
:101660002822002106A803F0CFF80023019302935B
:10167000039304930593012206924FF4803307935A
:101680000A9202220D920E934FF4E0130F9306A8D4
:1016900001F0D2FE80B90F230193022102910023B1
:1016A00003934FF480620492059301A802F004F9B9
:1016B00020B911B05DF804FBFFF7CEFFFFF7CCFFB8
:1016C0002DE9F04385B000F04FFFFFF7C7FFFFF7AC
:1016D00071FE00F04FFE00F0FDFC00F063FD00F035
:1016E000C7FEFFF7E1FE00F025FD3B4800F090F853
:1016F0000128FAD0394800F095FBFFF72FFF384852
:1017000000F07BFCFFF74CFFFFF70EFE00F0C0FC83
:10171000344C2146304800F0C7F9334B1868FEF7C7
:101720007BFE02460B46D4E91201CDE900012F48A9
:1017300000F008FBFFF762F92D4F38602D4E2E4D5B
:1017400031462846FFF728FE31682868FFF784F9FC
:101750004FF07C51FFF788FA0446284B1860284B5D
:101760001868FEF759FE804689462046FEF754FE6B
:10177000CDE9000142464B46224800F0E3FAFFF76C
:101780003DF9214C20603A680244DFF8548012B2DF
:101790000021404600F03CFC3A6823681A4412B22B
:1017A0000121404600F034FC052000F007FF00F066
:1017B00081FC07462868FEF72FFE04460D46029777
:1017C0003068FEF729FECDE9000122462B460F487E
:1017D00003F06CF89AE700BF6C0A00202C0D002083
:1017E000C00B0020180B0020B80B0020C80A0020F6
:1017F000F00B0020140B0020100B0020C00A00206A
:10180000BC0B0020700B0020F40B0020D0B00008AF
:101810002DE9F04186B0054664230293012301932C
:101820000DF1170200927522D02101F04BFC9DF8BA
:101830001730682B03D0012006B0BDE8F0810024EA
:101840008DF816404FF06408CDF808800126019607
:101850000DF11607009733466B22D021284601F080
:101860007FFB07238DF81630CDF80880019600978E
:1018700033461922D021284601F072FB8DF816401C
:10188000CDF808800196009733461C22D0212846C7
:1018900001F066FB8DF81640CDF8088001960097A0
:1018A00033461B22D021284601F05AFB2046C3E7CD
:1018B0002DE9F04792B08246CDE90623D0E90834FD
:1018C000CDE904341A462346DDE91A01FEF744FC4B
:1018D000DDE91C23FEF7F8FDDAE90623FEF73EFCFE
:1018E00006460F46CDE90867CAE90667DAE91045FA
:1018F000DDE91C2320462946FEF7E6FD02460B469D
:10190000CDE90223DAE90C8942464B46FEF724FC76
:10191000DAE90E6732463B46FEF71EFCDAE90023A1
:10192000FEF71CFCDDE91C23FEF7CEFDDAE90A23F5
:10193000FEF714FC0A460146CDE90012CAE90A1274
:10194000DDE9022340464946FEF706FC804689460B
:10195000CDE90A89CAE90C89DDE902233046394616
:10196000FEF7FAFB8046894602460B46CAE90E237B
:10197000DDE91C23DAE90201FEF7A6FD02460B466B
:1019800020462946FEF7EAFB05460E46CDE90C56F1
:10199000CAE91056DAE90423DDE900452046294664
:1019A000FEF7DCFB06460F4602460B46204629465C
:1019B000FEF7B4FE04460D46CDE90E4532463B46E1
:1019C000CDE9028940464946FEF7A8FE8046894691
:1019D000CDE91089DDE9086732463B46DDE90601BD
:1019E000FEF7BAFB02460B46CDE906232046294600
:1019F000FEF76AFD02460B4630463946FEF7AEFB5F
:101A000006460F46CAE90667DDE906234046494611
:101A1000FEF75AFD02460B46DDE90401FEF79EFB88
:101A2000CAE9080122462B46DDE90001FEF74CFD1C
:101A300002460B46DDE90001FEF78EFBCAE90A010A
:101A400022462B46DDE90A4520462946FEF73CFDA5
:101A500002460B4620462946FEF77EFBCAE90C01EA
:101A600042464B46DDE90001FEF72EFD02460B46DD
:101A7000DDE90201FEF770FBCAE90E0142464B4662
:101A800020462946FEF720FD02460B46DDE90C0103
:101A9000FEF762FBCAE910013046394612B0BDE8D4
:101AA000F0870000000000002DE9F04F89B00C46DF
:101AB000642302930E23019304AB009301233B2282
:101AC000D02101F0FFFA9DF810309DF8110040EA96
:101AD000032000B220809DF812309DF8139049EA4F
:101AE00003290FFA89F9A4F802909DF814309DF8A3
:101AF000158048EA03280FFA88F8A4F804809DF8B6
:101B00001660360236B29DF817301E439DF8183025
:101B10009DF819B04BEA032B0FFA8BFBA4F820B009
:101B20009DF81A309DF81BA04AEA032A0FFA8AFA98
:101B3000A4F822A09DF81C309DF81D7047EA0327E9
:101B40003FB2A784FEF756FC0022754BFEF7BCFCA3
:101B5000C4E902014846FEF74DFC0022704BFEF737
:101B6000B3FCC4E904014046FEF744FC66A3D3E994
:101B70000023FEF7D3FDC4E906013046FFF720F845
:101B80006849FFF725F96849FEF766FF2064584663
:101B9000FEF730FC5EA3D3E90023FEF7BFFDC4E9E6
:101BA0000A015046FEF726FC59A3D3E90023FEF7AD
:101BB000B5FDC4E90C013846FEF71CFC54A3D3E97B
:101BC0000023FEF7ABFDC4E90E0100F0EBFC574D1E
:101BD0002B68C01AFEF7FEFB0022554BFEF79EFD58
:101BE0008046894600F0DEFC2860B4F90000B4F9B4
:101BF000043003FB03F300FB0030FEF7FBFB09F0AE
:101C0000A3F806460F4600220023FEF7C5FE002873
:101C100066D1B4F90200FEF7EDFB32463B46FEF713
:101C20007DFD08F0FDFE3CA3D3E90023FEF74CFC4C
:101C300082468B46B4F900506D42B4F90400FEF7B9
:101C4000D9FB06460F462846FEF7D4FB32463B46F4
:101C500009F078F830A3D3E90023FEF735FC0646F7
:101C60000F460022334BFEF7A1FE30B10022324B6B
:101C7000D4E91401FEF7B8FE70B900222E4B3046AD
:101C80003946FEF7B1FE00282FD00022294BD4E9B7
:101C90001401FEF78BFE40B3284BC3E90667C4E985
:101CA0001467666D0022244B206D26F00041FEF77C
:101CB0009BFE28B1E16AA26A01F10043C4E90A234C
:101CC000CDE90289D4E90A23CDE9002352465B46D7
:101CD0001B48FFF7EDFDC4E9120109B0BDE8F08F24
:101CE0004FF0000A4FF0000BA4E7CDE90289D4E9D8
:101CF0000C23CDE9002332463B461048FFF7D8FDC0
:101D0000C4E91401CDE700BF000000000029CC4069
:101D10000000000000606040F8C1631ADCA54C4080
:101D20000000103F0000AA43B81E1242F80B00202A
:101D300000408F40008056C0008056404800002080
:101D4000000000202DE9F047824610461946DDE9E3
:101D50000823FEF701FA04460D46DAE90623FEF7EA
:101D6000FDF906460F46CAE90667DAE90A894246DE
:101D70004B46FEF739FE002847D0CAE90689DAE962
:101D8000082320462946FEF7E7F980468946224681
:101D90002B46DAE90001FEF797FB06460F46DAE923
:101DA0000623DAE90201FEF78FFB02460B463046B6
:101DB0003946FEF7D3F906460F4642464B46DAE966
:101DC0000401FEF781FB02460B4630463946FEF71A
:101DD000C5F980468946DAE90E6702460B46304669
:101DE0003946FEF7E3FD50B9DAE9106742464B4643
:101DF00030463946FEF7F8FD08B946464F46CAE96F
:101E0000084530463946BDE8F087DAE90C89424694
:101E10004B4630463946FEF7C9FD0028AFD0CAE927
:101E20000689ACE708B5054B1860054B1868002318
:101E300002221946806802F04DFD08BDFC0B00200F
:101E40009C000020022801D80120704708B502F04C
:101E5000B1FC09230360002008BD000010B5013863
:101E600001280AD814464FF0FF3392B207480068A1
:101E700002F09BFB40B9204610BD02F09BFC0923F9
:101E800003604FF0FF30F7E70520F5E7FC0B00207B
:101E9000022801D80020704708B502F08BFC092306
:101EA00003604FF0FF3008BD08B502F083FC092342
:101EB00003604FF0FF3008BD08B548B94FF0FF335D
:101EC00001220848006802F0DCFB40B9012008BD8F
:101ED00002F070FC092303604FF0FF30F7E70520A4
:101EE000F5E700BFFC0B002008B5022804D84FF42A
:101EF00000534B60002008BD02F05CFC0923036026
:101F0000F8E7000082B00E4B9A6942F001029A6134
:101F10009A6902F001020092009ADA6942F0805256
:101F2000DA61DB6903F080530193019B054A536832
:101F300023F0E06343F00073536002B0704700BFCA
:101F40000010024000000140FEE7FEE7FEE7FEE76A
:101F5000FEE770477047704708B500F017FB08BDF3
:101F600008B5024801F06FFE08BD00BF540C002008
:101F700008B5024801F067FE08BD00BF9C0C0020B8
:101F800008B5024801F05FFE08BD00BFE40C002068
:101F900008B54FF4805000F0ABFC08BD012070473D
:101FA00008B502F007FC162303604FF0FF3008BDB0
:101FB00008B54FF0FF31FFF7F3FFFEE708B5034622
:101FC0000B4A126842B10A4A106803446A469342B7
:101FD00006D8074A136008BD054A06491160F2E7B2
:101FE00002F0E8FB0C2303604FF0FF30F3E700BF83
:101FF000000C0020C00D0020704710B50446416958
:10200000006902F0EDF8E16AA06A02F0E9F810BD9B
:102010002DE9F04103461446B1B9006899889E68DD
:102020009F89D3F810805D69002C15DD012200F036
:1020300057FC00223946304600F052FCBDB9D8F8B2
:1020400000305C63BDE8F0818069998B1E6A9F8CCB
:10205000D3F82880DD6AE7E7644224B2002200F06A
:102060003FFC01223946304600F03AFCE6E7042DF9
:1020700005D0082D07D0D8F800301C64E2E7D8F866
:1020800000309C63DEE7D8F80030DC63DAE700005C
:1020900008B500F08DFA4FF47A73B3FBF0F3034AFE
:1020A000136000F07FFA024B186008BD080C002096
:1020B000040C002008B500F075FA044B1B68C01A28
:1020C000034B1B68B3FBF0F008BD00BF040C0020FD
:1020D000080C002000B58DB02422002103A802F0D6
:1020E00093FB00230193029311484FF0804202605A
:1020F000436083604FF6FF72C26003618361012316
:1021000003930593099303A901F0ECFE50B9002352
:102110000193029301A9064802F036F928B90DB0DF
:102120005DF804FBFFF798FAF1E7FFF795FAF6E799
:10213000540C002000B587B000230293039304934E
:102140000593009301931548154A026041F61F421A
:10215000426083603122C26003618023836101F0A9
:1021600069FE90B94FF48053029302A90B4801F025
:10217000BBFF68B90023009301936946074802F04A
:1021800003F940B907B05DF804FBFFF765FAE9E72A
:10219000FFF762FAEEE7FFF75FFAF3E79C0C002027
:1021A0000004004000B58DB02422002103A802F0F5
:1021B0002BFB0023019302931148124A02604360F3
:1021C00083604FF6FF72C260036183610123039352
:1021D0000593099303A901F085FE50B900230193EB
:1021E000029301A9064802F0CFF828B90DB05DF8B6
:1021F00004FBFFF731FAF1E7FFF72EFAF6E700BF2D
:10220000E40C00200008004000B583B00368134AC6
:10221000934205D0124A93420DD003B05DF804FBFF
:10222000104B9A6942F400629A619B6903F400635F
:102230000093009BF1E70B4BDA6942F00202DA618E
:10224000DB6903F002030193019B002201211D20A1
:1022500000F0DAF91D2000F00FFADEE7002C014053
:10226000000400400010024000B589B00023049330
:102270000593069307930368B3F1804F05D0254A71
:10228000934225D009B05DF804FB03F50433DA6905
:1022900042F00102DA61DA6902F001020092009A6A
:1022A0009A6942F004029A619B6903F00403019366
:1022B000019B0323049304A9174800F0FFF90022AF
:1022C00011461C2000F0A0F91C2000F0D5F9D9E738
:1022D000124BDA6942F00402DA61DA6902F00402B0
:1022E0000292029A9A6942F008029A619B6903F08D
:1022F00008030393039BC023049304A9084800F038
:10230000DDF9002211461E2000F07EF91E2000F0AB
:10231000B3F9B7E700080040000801400010024090
:10232000000C014000B587B000230293039304938F
:10233000059302680D4B9A4202D007B05DF804FB8A
:1023400003F564439A6942F004029A619B6903F0C1
:1023500004030193019B4FF4106302930223039340
:10236000059302A9024800F0A9F9E6E7002C014014
:102370000008014010B596B00024129413941494F0
:1023800015941094119409940A940B940C940D9440
:102390000E940F942022214601A802F035FA32480B
:1023A000324B03604460846041F61F43C3600461A4
:1023B00044618023836101F03DFD00283ED14FF44C
:1023C0008053129312A9284801F08EFE002838D1BC
:1023D000254801F05BFD002836D1002310931193AE
:1023E00010A9214801F0D0FF002830D160230993C3
:1023F00000220A920B920C920D920E920F9209A952
:10240000194801F0FDFD28BB0C2209A9164801F06E
:10241000F7FD10BB002301930293039304930593EC
:102420004FF400520692089301A90F4801F0E2FF11
:10243000B0B90D48FFF776FF16B010BDFFF70CF9E5
:10244000BDE7FFF709F9C3E7FFF706F9C5E7FFF7AF
:1024500003F9CBE7FFF700F9D6E7FFF7FDF8D9E777
:10246000FFF7FAF8E5E700BF0C0C0020002C014054
:1024700008B50A480A4B03604FF4E1334360002378
:102480008360C36003610C2242618361C36102F017
:102490005DF800B908BDFFF7DFF8FBE72C0D002061
:1024A0000048004010B586B00023029303930493C4
:1024B00005930268174B9A4201D006B010BD03F590
:1024C000E433DA6942F48022DA61DA6902F48022C4
:1024D0000092009A9A6942F008029A619B6903F09F
:1024E00008030193019B4FF480630293022303933B
:1024F00003230593084C02A9204600F0DFF84FF4AF
:102500000063029300230393049302A9204600F082
:10251000D5F8D2E700480040000C014010B5044651
:102520000E4B18784FF47A73B3FBF0F30C4A106833
:10253000B0FBF3F000F0AEF868B90F2C01D9012020
:102540000AE0002221464FF0FF3000F05DF8054B15
:102550001C60002000E0012010BD00BF940000209E
:10256000900000209800002008B5074A136843F047
:1025700010031360032000F035F80020FFF7CEFFB2
:10258000FFF7C0FC002008BD00200240034A11688C
:10259000034B1B780B441360704700BF700D002085
:1025A00094000020014B1868704700BF700D002098
:1025B000014B1878704700BF9400002038B50446DE
:1025C000FFF7F0FF0546B4F1FF3F02D0044B1B7844
:1025D0001C44FFF7E7FF401BA042FAD338BD00BF01
:1025E00094000020074AD36823F4E0631B041B0C0B
:1025F000000200F4E060034343F0BF6343F40033A0
:10260000D360704700ED00E000B5194BDB68C3F301
:102610000223C3F1070CBCF1040F28BF4FF0040CD8
:1026200003F1040EBEF1060F18D9033B4FF0FF3E35
:102630000EFA0CFC21EA0C0199400EFA03F322EA8F
:102640000303194300280BDB0901C9B200F1604004
:1026500000F5614080F800135DF804FB0023E5E716
:1026600000F00F000901C9B2024B1954F4E700BF92
:1026700000ED00E014ED00E0002807DB00F01F0291
:10268000400901239340024A42F82030704700BFBE
:1026900000E100E00138B0F1807F0BD24FF0E02381
:1026A0005861054AF02182F8231000209861072222
:1026B0001A6170470120704700ED00E070B582B0EC
:1026C0000024A446A6E0804DAA4210D007D97F4D31
:1026D000AA420CD005F58035AA4208D013E0A5F532
:1026E0008015AA4203D005F57025AA4207D18A6851
:1026F000002A58D0012A51D04361082403E0A5F5EF
:102700008015AA42F3D0BEF1FF0F4ED80646BEF1A7
:10271000FF0F4CD84FEA8C0233680F25954023EA0F
:10272000050304FA02F2134333604B6813F0805F31
:102730006ED0674B9A6942F001029A619B6903F07F
:1027400001030193019B4FEA9C02951C614B53F8D6
:1027500025600CF003039D000F23AB4026EA03061F
:102760005D4B984229D003F58063984200F08E803B
:1027700003F58063984200F08B8003F580639842F4
:1027800019D004231AE0CC68BDE7CC680434BAE75A
:10279000CC680834B7E7CC680C34B4E7036108248C
:1027A000B1E70024AFE70424ADE7061DAFE7ACF1C5
:1027B00008029200B0E7032300E00023AB4033435C
:1027C0000232444D45F822304B6813F4803F61D00B
:1027D000424A136843EA0E0313604B6813F4003F48
:1027E0005ED03E4A536843EA0E0353604B6813F4CD
:1027F000801F5BD0394A936843EA0E0393604B68AD
:1028000013F4001F58D0354AD36843EA0E03D3604F
:102810000CF1010C0A6832FA0CF353D0012303FACD
:102820000CF302EA030E33EA0202F1D14A68122ADB
:102830003FF649AF122A3FF666AF01A555F822F0E0
:10284000EF2600088727000891270008A327000823
:1028500007270008072700080727000807270008A0
:102860000727000807270008072700080727000890
:102870000727000807270008072700080727000880
:10288000072700088B27000897270008012395E7F2
:10289000022393E7114A136823EA0E0313609CE7AF
:1028A0000E4A536823EA0E0353609FE70B4A93686E
:1028B00023EA0E039360A2E7084AD36823EA0E03D3
:1028C000D360A5E702B070BD0000221000003110F7
:1028D00000100240000001400008014000040140D7
:1028E0000AB1016170470904016170477047000037
:1028F00008B5054B5B69034200D108BD024B586126
:10290000FFF7F4FFF9E700BF0004014003685A69CC
:1029100012F4806F01D1002070476FF480625A6119
:1029200000230363202280F83D2080F83E30026CB3
:1029300042F00402026480F83C30012070472DE927
:10294000F04107460D4690461E4624E0FFF72AFE5A
:10295000069BC01AB04200D8EEB900233B63202288
:1029600087F83D2087F83E303A6C42F020023A6406
:1029700087F83C3001201EE03B689C6925EA040C86
:102980001FFA8CFCBCFA8CFC4FEA5C1CE04511D1B0
:10299000B6F1FF3FDAD1C5F30743012BECD13B6819
:1029A0005B6925EA030C1FFA8CFCBCFA8CFC4FEA2D
:1029B0005C1CEBE70020BDE8F0812DE9F041054605
:1029C0000E46174698463DE01A6842F400721A60B7
:1029D0002B686FF480625A6100232B63202285F8F4
:1029E0003D2085F83E302A6C42F004022A6485F8C6
:1029F0003C30012034E0FFF7D5FDA0EB0800B842E1
:102A000000D8FFB900232B63202285F83D2085F8EC
:102A10003E302A6C42F020022A6485F83C300120C6
:102A20001EE02B689C6926EA0404A4B2003C18BF8F
:102A30000124A4B12B685A6912F4806FC4D1B7F194
:102A4000FF3FD8D1C6F30743012BEAD12B685C695D
:102A500026EA0404A4B2003C18BF0124E9E70020E0
:102A6000BDE8F08170B504460D46164623685B69E3
:102A700013F0800F1CD12046FFF748FFD0B9B5F105
:102A8000FF3FF3D0FFF78EFD801BA84201D8002D39
:102A9000ECD100232363202284F83D2084F83E30CB
:102AA000226C42F02002226484F83C30012000E0D5
:102AB000002070BD0120FCE72DE9F04385B00446FD
:102AC0000D4691461F46DDF830800D9E036819685B
:102AD00041F4807119600096434600224FF00111C5
:102AE000FFF72DFF60B9236805F0FE051D61334631
:102AF000424626492046FFF760FF68B1012008E002
:102B000023681B6813F4807F02D04FF400732364A2
:102B1000032005B0BDE8F0830023039323685A69BE
:102B200003929B690393039B324641462046FFF77D
:102B300099FF30B9012F0FD123685FFA89F61E6122
:102B4000E7E7236C042B01D00120E2E72268136839
:102B500043F400731360F7E723684FEA19221A6100
:102B6000324641462046FFF77DFF20B923685FFAD1
:102B700089F61E61CDE7236C042B01D00120C8E744
:102B80002268136843F400731360F7E70200010042
:102B90002DE9F04784B004460D46164699460C9F31
:102BA000DDF834800268136843F4806313600368BF
:102BB000196841F480711960CDF800803B4600220D
:102BC0004FF00111FFF7BBFE70B95FFA85FA236879
:102BD00005F0FE051D6143463A4641492046FFF790
:102BE000ECFE68B1012008E023681B6813F4807FC5
:102BF00002D04FF400732364032004B0BDE8F087D3
:102C00000023039323685A6903929B690393039BF0
:102C1000424639462046FFF725FF80B9B9F1010F3A
:102C200018D12368F6B21E61424639462046FFF7A6
:102C300019FF68B3236C042B24D00120DDE7236C3B
:102C4000042B01D00120D8E72268136843F40073F5
:102C50001360F7E72368320A1A6142463946204674
:102C6000FFF700FF18B92368F6B21E61DCE7236C9A
:102C7000042B01D00120C0E72268136843F40073DD
:102C80001360F7E72268136843F400731360D4E716
:102C90002268136843F480731360CDF800803B46CC
:102CA00000224FF001112046FFF749FE68B9226863
:102CB0004AF00103136143463A4609492046FFF7AB
:102CC0007CFE002899D0012097E723681B6813F445
:102CD000807F02D04FF40073236403208DE700BF90
:102CE0000200010070B504460D46164623685B6974
:102CF00013F0040F1CD12046FFF708FED0B9B5F140
:102D0000FF3FF3D0FFF74EFC801BA84201D8002DF7
:102D1000ECD100232363202284F83D2084F83E3048
:102D2000226C42F02002226484F83C30012000E052
:102D3000002070BD0120FCE770B505460C46164624
:102D40002B68596911F0400F29D1596911F0100F02
:102D500015D1FFF727FC801BA04201D8002CEFD132
:102D600000232B63202285F83D2085F83E302A6C15
:102D700042F020022A6485F83C30012070BD6FF0DB
:102D800010025A6100232B63202285F83D2085F82C
:102D90003E302A6C2A6485F83C300120EEE70020A2
:102DA000ECE70000002800F0CC8070B5044690F8F5
:102DB0003D30002B77D0242384F83D3022681368FF
:102DC00023F0010313602268136843F40043136087
:102DD0002268136823F40043136000F029FE626840
:102DE0005A4B9A4264D85A4B98428CBF0023012315
:102DF000002B40F0A8805749A1FB00318B0C2568BF
:102E00006A6822F03F0242EA91426A6021680A6AD7
:102E100022F03F0266684D4DAE424FD80133134356
:102E20000B622168CA6922F44F4222F0FF026668F1
:102E3000464B9E424CD8431E7600B3FBF6F301335B
:102E400040F6FC70034278D0C3F30B031343CB610D
:102E500021680B6823F0C003E269206A0243134330
:102E60000B6021688B6823F4034323F0FF0322697E
:102E7000E068024313438B602168CB6823F0FF03B3
:102E80006269A06902431343CB602268136843F070
:102E90000103136000202064202384F83D30206368
:102EA00084F83E0070BD80F83C30FEF71BFB82E7E3
:102EB000294B98428CBF0023012399E74FF4967564
:102EC00005FB03F3254DA5FB03539B090133A6E73F
:102ED000A368BBB9451E06EB460CB5FBFCF50135F6
:102EE000C5F30B05B5FA85F56D0945BBC3B90138C6
:102EF00006EB4603B0FBF3F30133C3F30B0343F4D8
:102F00000043A3E7451E06EB860C0CEB8C0CB5FBCF
:102F1000FCF50135C5F30B05B5FA85F56D09E4E758
:102F2000013806EB860303EB8303B0FBF3F30133B5
:102F3000C3F30B0343F4404388E7042386E70123EC
:102F400084E7012070470120ACE700BFA0860100A4
:102F50007F841E0083DE1B43FF083D00D34D6210BB
:102F60002DE9F04383B004460F46904699460C9EE7
:102F7000FFF718FB054694F83D00C0B2202803D0A7
:102F8000022003B0BDE8F0830095192301224B49CC
:102F90002046FFF7D4FC002840F0898094F83C30AC
:102FA000012B00F08680012384F83C3023681A68E6
:102FB00012F0010F03D11A6842F001021A60226870
:102FC000136823F400631360212384F83D30402309
:102FD00084F83E30002323640A9B6362BDF82C30E2
:102FE0006385638D2385364BE362019500964B46DE
:102FF000424639462046FFF75FFD00285BD1238D0E
:10300000002B35D02A4631462046FFF72BFD20BB4A
:10301000626A236812781A61626A531C6362218DA6
:10302000013989B22185638D9BB2013B9BB26385D7
:103030002368586910F0040FE1D00029DFD05278DE
:103040001A61636A01336362238D013B2385638DBB
:103050009BB2013B9BB26385D1E7236C042B01D06B
:1030600001208EE72268136843F400731360F7E7CA
:103070002A4631462046FFF735FE50B1236C042B1B
:1030800001D001207DE72268136843F400731360C8
:10309000F7E72268136843F400731360202384F871
:1030A0003D30002384F83E3084F83C3069E702204C
:1030B00067E7022065E7012063E700BF0200100018
:1030C0000000FFFF2DE9F04389B004460F4690460B
:1030D0009946129E00230793FFF764FA054694F879
:1030E0003D00C0B2202804D00227384609B0BDE810
:1030F000F08300951923012281492046FFF71FFC28
:10310000002840F0728194F83C30012B00F06F8170
:10311000012384F83C3023681A6812F0010F03D1B0
:103120001A6842F001021A602268136823F40063EF
:103130001360222384F83D30402384F83E3000237E
:103140002364109B6362BDF844306385638D2385DF
:103150006C4BE362019500964B4642463946204649
:10316000FFF716FD0746002840F04381238D5BB929
:10317000039323685A6903929A690392039A1A681F
:1031800042F400721A60EDE0012B0FD0022B21D027
:103190002268136843F48063136000230693236856
:1031A0005A6906929B690693069BDBE022681368C6
:1031B00023F48063136072B60023049323685A6972
:1031C00004929A690492049A1A6842F400721A608E
:1031D00062B6C7E02268136843F40063136072B6F6
:1031E0000023059323685A6905929A690592059A06
:1031F0001A6822F480621A6062B6B3E02A46314649
:103200002046FFF799FD002840F0F58023681A69F1
:10321000636A1A70636A01336362238D013B2385FD
:10322000638D9BB2013B9BB263859BE00095334667
:10323000002235492046FFF782FB002840F0DF805E
:103240002268136823F48063136072B623681A69D6
:10325000636A1A70636A01336362238D013B2385BD
:10326000638D9BB2013B9BB26385284B1B68DB08D7
:10327000274AA2FB03231B0A03EB8303C3EBC3030D
:103280000793079B013B0793079B002B28D02368DC
:103290005A6912F0040FF4D01A6842F400721A60EE
:1032A00023681A69636A1A70636A01336362238D43
:1032B000013B2385638D9BB2013B9BB2638562B664
:1032C00023681A69636A1A70636A01336362238D23
:1032D000013B2385638D9BB2013B9BB2638541E03B
:1032E0002363202284F83D2084F83E30226C42F093
:1032F0002002226462B684F83C300127F5E600BF64
:10330000020010000000FFFF0400010090000020F8
:1033100089B5F8142A4631462046FFF70DFD0028EE
:103320006FD123681A69636A1A70626A531C6362F8
:10333000238D013B2385638D9BB2013B9BB263854B
:103340002368596911F0040F0CD01B695370636A2C
:1033500001336362238D013B2385638D9BB2013B67
:103360009BB26385238D002B36D0032BD2D8012B43
:103370003FF444AF022B7FF459AF0095334600224F
:1033800021492046FFF7DBFA002836D172B62268C1
:10339000136843F40073136023681A69636A1A7030
:1033A000636A01336362238D013B2385638D9BB286
:1033B000013B9BB2638562B623681A69636A1A701F
:1033C000636A01336362238D013B2385638D9BB266
:1033D000013B9BB26385C5E7202384F83D30002381
:1033E00084F83E3084F83C307FE602277DE60227F1
:1033F0007BE6012779E6012777E6012775E60127B5
:1034000073E6012771E600BF0400010082B0084B9B
:103410001B68084AA2FB03235B0A00FB03F301932A
:1034200000BF019B5A1E0192002BF9D102B07047D8
:1034300090000020D34D6210002800F0F18170B59B
:1034400082B00446036813F0010F2CD0994B5B68DF
:1034500003F00C03042B1DD0964B5B6803F00C03A8
:10346000082B12D06368B3F5803F41D0002B55D1B3
:1034700003F1804303F504331A6822F480321A60A2
:103480001A6822F480221A6037E08A4B5B6813F4D2
:10349000803FE7D0874B1B6813F4003F03D063687D
:1034A000002B00F0BF81236813F0020F75D0814B11
:1034B0005B6813F00C0F5FD07E4B5B6803F00C036E
:1034C000082B54D02369002B00F08A807A4B01220C
:1034D0001A60FFF767F80546764B1B6813F0020F7A
:1034E00075D1FFF75FF8401B0228F5D903209EE154
:1034F000704A136843F480331360636843B3FFF783
:1035000051F805466B4B1B6813F4003FCBD1FFF716
:1035100049F8401B6428F5D9032088E1B3F5A02FB2
:1035200009D0644B1A6822F480321A601A6822F4B7
:1035300080221A60E1E703F18043A3F53C331A6867
:1035400042F480221A601A6842F480321A60D4E78A
:10355000FFF728F80546574B1B6813F4003FA2D02D
:10356000FFF720F8401B6428F5D903205FE1514B99
:103570005B6813F4803FA5D14E4B1B6813F0020F1C
:1035800003D02369012B40F04F814A4A136823F08E
:10359000F803616943EAC1031360236813F0080F5D
:1035A00033D0A369002B5CD0434B0122C3F88024A5
:1035B000FEF7F8FF05463F4B5B6A13F0020F21D17F
:1035C000FEF7F0FF401B0228F5D903202FE1394A0E
:1035D000136823F0F803616943EAC1031360DCE771
:1035E000354B00221A60FEF7DDFF0546314B1B68A4
:1035F00013F0020FD1D0FEF7D5FF401B0228F5D9FA
:10360000032014E10120FFF701FF236813F0040FEA
:1036100000F09680274BDB6913F0805F34D1254B97
:10362000DA6942F08052DA61DB6903F0805301937A
:10363000019B0125214B1B6813F4807F26D0E36892
:10364000012B3DD0002B53D103F1804303F504330C
:103650001A6A22F001021A621A6A22F004021A623D
:1036600033E0154B0022C3F88024FEF79BFF05468C
:10367000104B5B6A13F0020FC7D0FEF793FF401B9D
:103680000228F5D90320D2E00025D3E70B4A1368BE
:1036900043F480731360FEF785FF0646074B1B68F3
:1036A00013F4807FCBD1FEF77DFF801B6428F5D912
:1036B0000320BCE0001002400000424200700040C5
:1036C0005F4A136A43F001031362E36833B3FEF702
:1036D00069FF06465A4B1B6A13F0020F2FD1FEF703
:1036E00061FF801B41F288339842F3D903209EE0AA
:1036F000052B09D0524B1A6A22F001021A621A6A8B
:1037000022F004021A62E0E74D4B1A6A42F004020A
:103710001A621A6A42F001021A62D6E7FEF742FF05
:103720000646474B1B6A13F0020F08D0FEF73AFF1C
:10373000801B41F288339842F3D9032077E0E5B942
:10374000E369002B72D03E4A526802F00C02082A4C
:1037500056D0022B17D03B4B00221A66FEF722FFF1
:103760000446374B1B6813F0007F47D0FEF71AFF63
:10377000001B0228F5D9032059E0314AD36923F010
:103780008053D361DCE72F4B00221A66FEF70AFF55
:1037900005462B4B1B6813F0007F06D0FEF702FF97
:1037A000401B0228F5D9032041E0236AB3F5803F8E
:1037B0001AD023494B6823F47413226A606A0243C7
:1037C00013434B601F4B01221A66FEF7EBFE0446C3
:1037D0001B4B1B6813F0007F0ED1FEF7E3FE001BAE
:1037E0000228F5D9032022E0154A536823F4003358
:1037F000A1680B435360DCE7002018E0002016E0CE
:10380000012B16D00E4B5B6803F48031226A914283
:1038100011D103F47013626A93420ED1002006E0C6
:1038200001207047012002E0012000E0002002B0EA
:1038300070BD0120FBE70120F9E70120F7E700BF99
:10384000001002400000424286B0174B0FCB0DF132
:10385000180C0CE90F0040F20123ADF80430134BB3
:103860005B6803F00C02082A02D0114806B07047CA
:10387000C3F3834218326A4412F8100C13F4803FE9
:103880000DD00A4B5B68C3F3404318336B4413F805
:10389000143C074A02FB00F0B0FBF3F0E6E7054BEF
:1038A00003FB00F0E2E700BF08B10008001002408F
:1038B00000127A0000093D00002800F0A08070B5D9
:1038C0000D460446524B1B6803F007038B420BD294
:1038D0004F4A136823F007030B431360136803F088
:1038E00007038B4240F08D80236813F0020F17D03E
:1038F00013F0040F04D0474A536843F4E063536065
:10390000236813F0080F04D0424A536843F460530D
:103910005360404A536823F0F003A1680B4353609F
:10392000236813F0010F31D06368012B20D0022BE4
:1039300025D0384A126812F0020F64D035494A681F
:1039400022F0030213434B60FEF72CFE0646314B78
:103950005B6803F00C036268B3EB820F16D0FEF7CE
:1039600021FE801B41F288339842F0D9032045E0C4
:10397000284A126812F4003FE0D101203EE0254AB7
:10398000126812F0007FD9D1012037E0204B1B686C
:1039900003F00703AB420AD91D4A136823F007035B
:1039A0002B431360136803F00703AB422DD1236848
:1039B00013F0040F06D0174A536823F4E063E1685C
:1039C0000B435360236813F0080F07D0114A536864
:1039D00023F46053216943EAC1035360FFF734FFC6
:1039E0000C4B5B68C3F303130B4AD35CD8400B4BFF
:1039F00018600B4B1868FEF791FD002070BD012088
:103A000070470120FAE70120F8E70120F6E700BF40
:103A10000020024000100240F0B00008900000209A
:103A200098000020014B1868704700BF90000020EC
:103A300008B5FFF7F7FF044B5B68C3F30223034AA3
:103A4000D35CD84008BD00BF0010024000B10008A0
:103A500008B5FFF7E7FF044B5B68C3F3C223034AD3
:103A6000D35CD84008BD00BF0010024000B1000880
:103A700070B4036A23F001030362036A4668826933
:103A800022F073020C6844EA020523F002028B68FC
:103A900013430D4CA04209D00B4CA0420DD0466000
:103AA00085614A684263036270BC704723F0080373
:103AB000CA68134323F00403EEE726F440764A690C
:103AC00032438E691643EAE7002C014030B4036AA2
:103AD00023F480730362036A4568C26922F07302AB
:103AE0000C68224323F400738C6843EA04230F4CD0
:103AF000A04209D00D4CA0420ED04560C2614A6878
:103B0000C263036230BC704723F40063CC6843EAAD
:103B1000042323F48063EDE725F440554C6945EA1E
:103B200004158C6945EA0415E7E700BF002C014045
:103B300030B4036A23F480530362036A4468C269A1
:103B400022F4E6420D6842EA052223F400538D6810
:103B500043EA0533074DA84206D04460C2614A6873
:103B60000264036230BC704724F480444D6944EA27
:103B70008514F2E7002C014010B4036A046A24F0B3
:103B800001040462846924F0F00C4CEA021223F070
:103B90000A030B438261036210BC704710B4046ACD
:103BA00024F0100404628469036A24F4704C4CEA23
:103BB000023223F0A00343EA01138261036210BCC6
:103BC0007047836823F070030B4343F0070383605F
:103BD0007047000090F83D30DBB2012B27D1022363
:103BE00080F83D300268D36843F00103D360036876
:103BF000114A934210D0B3F1804F0DD0A2F5943208
:103C0000934209D002F58062934205D01A6842F0CF
:103C100001021A60002070479A6802F00702062A23
:103C200007D01A6842F001021A6000207047012094
:103C300070470020704700BF002C0140704770475C
:103C400070477047704710B5044603681A6912F050
:103C5000020F11D0DA6812F0020F0DD06FF00202DD
:103C60001A610123037703689B6913F0030F70D077
:103C7000FFF7E6FF0023237723681A6912F0040F89
:103C800012D0DA6812F0040F0ED06FF004021A613D
:103C90000223237723689B6913F4407F5FD020467B
:103CA000FFF7CEFF0023237723681A6912F0080F6D
:103CB00012D0DA6812F0080F0ED06FF008021A6105
:103CC000042323772368DB6913F0030F4ED02046CB
:103CD000FFF7B6FF0023237723681A6912F0100F4D
:103CE00012D0DA6812F0100F0ED06FF010021A61C5
:103CF000082323772368DB6913F4407F3DD02046F7
:103D0000FFF79EFF0023237723681A6912F0010F43
:103D100003D0DA6812F0010F36D123681A6912F065
:103D2000800F03D0DA6812F0800F34D123681A694B
:103D300012F0400F03D0DA6812F0400F32D123683E
:103D40001A6912F0200F03D0DA6812F0200F30D178
:103D500010BDFFF774FF2046FFF773FF8AE7204688
:103D6000FFF76DFF2046FFF76CFF9BE72046FFF74C
:103D700066FF2046FFF765FFACE72046FFF75FFFD1
:103D80002046FFF75EFFBDE76FF001021A61204693
:103D9000FDF7DEFAC1E76FF080021A61204600F0FD
:103DA00053FBC3E76FF040021A612046FFF74AFF5A
:103DB000C5E76FF020021A61204600F044FBC7E718
:103DC00003681B4A90420AD0B0F1804F07D0A2F599
:103DD0009432904203D002F58062904203D123F0E6
:103DE00070034A681343124A90420AD0B0F1804FE0
:103DF00007D0A2F59432904203D002F5806290423F
:103E000003D123F44073CA68134323F080034A6943
:103E1000134303608B68C3620B688362044B984250
:103E200002D00123436170470B690363F9E700BFC8
:103E3000002C014040B310B5044690F83D30F3B17A
:103E4000022384F83D30214651F8040BFFF7B8FFF8
:103E5000012384F8463084F83E3084F83F3084F8FB
:103E6000403084F8413084F8423084F8433084F89C
:103E7000443084F8453084F83D30002010BD80F88F
:103E80003C30FEF7C1F9DBE70120704740B310B5C5
:103E9000044690F83D30F3B1022384F83D302146CA
:103EA00051F8040BFFF78CFF012384F8463084F8A7
:103EB0003E3084F83F3084F8403084F8413084F854
:103EC000423084F8433084F8443084F8453084F834
:103ED0003D30002010BD80F83C30FFF7AFFEDBE73F
:103EE00001207047002857D070B50D46044690F861
:103EF0003D30002B4BD0022384F83D30226893687C
:103F000023F4804323F007039360214651F8040B08
:103F1000FFF756FF21688A688B690E6A286810438C
:103F200023F4407C2CF0030CAA68AB6942EA03231B
:103F300043EA0C0323F47C4323F0FC03EA69D5F83D
:103F40000CC04CEA022C4CEA030C2A6A13032A69BF
:103F500043EA021343EA0C0326F022066A686D69FD
:103F600042EA05123243886021688B6123681A6235
:103F7000012384F8463084F83E3084F83F3084F8DA
:103F8000423084F8433084F83D30002070BD80F822
:103F90003C30FEF769F9AEE70120704730B4036AA0
:103FA00023F010030362036A4468826922F4E64244
:103FB0000D6842EA052223F020038D6843EA0513C9
:103FC0000E4DA84209D00D4DA8420ED0446082612A
:103FD0004A688263036230BC704723F08003CD6877
:103FE00043EA051323F04003EDE724F440644D69F0
:103FF00044EA85048D6944EA8504E7E7002C014022
:1040000038B590F83C30012B60D004460D460123B2
:1040100080F83C300C2A1AD8DFE802F00719191989
:104020001D1919193119191944000068FFF720FDED
:104030002268936943F0080393612268936923F02F
:10404000040393612268936929690B4393610020FB
:1040500084F83C0038BD0068FFF7A0FF2268936930
:1040600043F4006393612268936923F4806393614E
:1040700022689369296943EA01239361E7E70068AD
:10408000FFF724FD2268D36943F00803D361226857
:10409000D36923F00403D3612268D36929690B43F0
:1040A000D361D4E70068FFF743FD2268D36943F486
:1040B0000063D3612268D36923F48063D3612268EB
:1040C000D369296943EA0123D361C0E70220C1E72C
:1040D00010B4846824F47F4C42EA03220A4342EA83
:1040E0000C02826010BC704790F83C30012B66D007
:1040F00010B50446012380F83C30022380F83D309F
:104100000268936823F47F4323F0770393600B687E
:10411000602B40D022D8402B47D00BD9502B0ED14A
:10412000CA6849680068FFF727FD50212068FFF73B
:1041300048FD04E0202B0CD008D9302B09D00123F6
:1041400084F83D30002084F83C0010BD0BB1102BEA
:10415000F5D119462068FFF734FDF0E7702B0ED03B
:10416000B3F5005FEBD1CB684A6889680068FFF758
:10417000AFFF2268936843F480439360DFE7CB6826
:104180004A6889680068FFF7A3FF2268936843F0D4
:1041900077039360D3E7CA6849680068FFF7FEFCBD
:1041A00060212068FFF70DFDC9E7CA68496800680B
:1041B000FFF7E2FC40212068FFF703FDBFE7022084
:1041C000704701F01F01012303FA01FC036A23EA8F
:1041D0000C030362036A02FA01F10B4303627047A6
:1041E00010B50446084651BB94F83E30DBB2013BA3
:1041F00018BF0123002B5BD1002839D1022384F89A
:104200003E30012201462068FFF7DBFF23682A4A7F
:1042100093423DD02368284A93423ED0B3F1804F69
:104220003BD0A2F59432934237D002F5806293429C
:1042300033D01A6842F001021A60002039E00429E4
:1042400008D008290DD094F84130DBB2013B18BFEB
:104250000123CFE794F83F30DBB2013B18BF0123C5
:10426000C8E794F84030DBB2013B18BF0123C1E737
:10427000042805D0082807D0022384F84130C0E77D
:10428000022384F83F30BCE7022384F84030B8E7CB
:104290005A6C42F400425A64BCE79A6802F0070282
:1042A000062A07D01A6842F001021A60002000E0D6
:1042B000012010BD0020FCE7002C014038B5044669
:1042C00090F83E00C0B294F83F3094F84220D2B249
:1042D00094F843C00D46B1B9012849D1012A48D10B
:1042E000022384F83E3084F842307DB3042D39D067
:1042F000012200212068FFF764FF012204212068C9
:10430000FFF75FFF27E0DBB25FFA8CFC042912D0D5
:10431000012833D1012B2CD1012A31D1BCF1010F5D
:1043200030D1022384F83E3084F83F3084F84230A4
:1043300084F84330D9E7012B1CD1BCF1010F1BD10C
:10434000022384F83F3084F84330CEE70122002175
:104350002068FFF736FF2268136843F001031360FB
:10436000002006E0012204212068FFF72AFFF2E77F
:10437000012038BD0120FCE71846FAE70120F8E7E4
:104380001846F6E71046F4E790F83C30012B2CD0A5
:1043900010B4012380F83C30022380F83D300368DC
:1043A0005A689C6822F0700C0A6842EA0C025A6053
:1043B00003680F4A93420AD0B3F1804F07D0A2F5A9
:1043C0009432934203D002F58062934204D124F0E8
:1043D00080044A6814439C60012380F83D30002328
:1043E00080F83C30184610BC70470220704700BF70
:1043F000002C014090F83C30012B22D0012380F8A2
:104400003C30CB6823F440738A68134323F4806301
:104410004A68134323F400630A68134323F4805368
:104420000A69134323F400534A69134323F4804376
:10443000CA69134302685364002380F83C3018466D
:1044400070470220704770477047000010B504465F
:104450000268136923F44053C1680B4313618368F6
:104460000269134342691A430168CB6823F4B053CD
:1044700023F00C031343CB600268536923F44073A9
:1044800081690B4353610268134B9A4220D0FFF7B6
:10449000CFFA024602EB820202EB820263689B00C3
:1044A000B2FBF3F20D48A0FB02314909642303FB80
:1044B00011231B013233A0FB03235B0903F0F0023D
:1044C00002EB011203F00F03216813448B6010BD4F
:1044D000FFF7BEFA0246DDE7003801401F85EB51C9
:1044E0002DE9F84305460F4616469946DDF820802B
:1044F0002C68246837EA04030CBF4FF0010C4FF01E
:10450000000CB4451FD1B8F1FF3FF1D0B8F1000F56
:1045100005D0FEF747F8A0EB09004045E8D92A6826
:10452000D36823F4D073D3602A68536923F001035E
:104530005361202385F83D3085F83E30002385F80F
:104540003C30032000E00020BDE8F88358B310B5EC
:10455000044690F83D300BB3242384F83D302268A4
:10456000D36823F40053D3602046FFF76FFF22681F
:10457000136923F4904313612268536923F02A03DB
:1045800053612268D36843F40053D3600020206451
:10459000202384F83D3084F83E3010BD80F83C3054
:1045A000FDF780FFD8E7012070472DE9F04182B088
:1045B0001E4690F83D30DBB2202B54D104460D4608
:1045C0009046002953D0002A53D090F83C30012B5C
:1045D00051D0012380F83C3000230364212380F86C
:1045E0003D30FDF7DFFF0746A4F82480A4F82680BD
:1045F000A368B3F5805F05D04FF00008002384F86E
:104600003C3012E0236913B14FF00008F6E7A846EA
:104610000025F3E738F8023B2268C3F30803536030
:10462000E28C92B2013A92B2E284E38C9BB273B113
:1046300000963B46002280212046FFF751FFE0B95B
:10464000002DE7D015F8012B23685A60E8E70096A3
:104650003B46002240212046FFF742FF78B9202345
:1046600084F83D3000E0022002B0BDE8F081012076
:10467000FAE70120F8E70220F6E70320F4E7032039
:10468000F2E72DE9F04182B01E4690F83E30DBB2F1
:10469000202B5CD104460D46904600295BD0002AB1
:1046A0005BD090F83C30012B59D0012380F83C308E
:1046B00000230364222280F83E200363FDF772FF8B
:1046C0000746A4F82C80A4F82E80A368B3F5805F79
:1046D00005D04FF00008002384F83C3017E0236930
:1046E00013B14FF00008F6E7A8460025F3E723686A
:1046F0005B68C3F3080328F8023B03E023685B68A8
:104700002B700135E28D92B2013A92B2E285E38DCF
:104710009BB2BBB100963B46002220212046FFF70A
:10472000DFFEF0B9002DE2D0A368B3F5805FE5D0DD
:1047300013B92369002BE1D023685B6803F07F0382
:104740002B70DEE7202384F83E30002000E00220BA
:1047500002B0BDE8F0810120FAE70120F8E702206D
:10476000F6E70320F4E700000C480D490D4A00234A
:1047700002E0D458C4500433C4188C42F9D30A4A16
:104780000A4C002301E013600432A242FBD3FDF780
:1047900033FC00F015F8FCF793FF70470000002091
:1047A000480A00209CB50008480A0020BC0D0020E3
:1047B000FEE70000014B1868704700BF9C00002016
:1047C00070B50D4E0D4D761BB61006D0002455F871
:1047D000043B01349847A642F9D1094E094D06F031
:1047E0006BFC761BB61006D0002455F8043B013450
:1047F0009847A642F9D170BD90B5000890B5000861
:1048000098B5000890B50008830730B548D0541E0D
:10481000002A3FD00346CAB201E0013C3AD303F874
:10482000012B9D07F9D1032C2DD9CDB245EA0525E1
:104830000F2C45EA054536D9A4F1100222F00F0CE1
:1048400003F1200EE6444FEA121C03F1100242E984
:10485000045542E9025510327245F8D10CF10102BB
:1048600014F00C0F03EB021204F00F0C13D0ACF198
:10487000040323F003030433134442F8045B93421C
:10488000FBD10CF003042CB1CAB21C4403F8012B79
:104890009C42FBD130BD64461346002CF4D1F9E7AD
:1048A00003461446BFE71A46A446E0E70FB400B536
:1048B000074A83B004AB106853F8042B8168019356
:1048C00000F0E0F803B05DF804EB04B0704700BFFF
:1048D0009C0000202DE9F043694C0E46D4F800807E
:1048E000174604461D4683B0B8F1000F03D0D8F830
:1048F0003830002B77D0022F05D0012F00F2AC808A
:10490000002DC0F2A980636EDA0752D521464046D9
:1049100002F0AEFF216B41B104F14003994202D095
:10492000404603F0D1F8002323630023B4F90CC000
:10493000A3611CF0800F636064D12CF44A6C2CF0EE
:10494000030C022FA4F80CC06AD001AB21464046EC
:104950006A4603F059FAA3891843A081002D2FD08D
:10496000002E2ED0D8F83830002B38D0009BC4E968
:104970000465AB42B4F90C3026601CBF43F40063FD
:10498000A381012F04BF43F00103A3819AB213F066
:1049900008032CD0D1075DD500216D42A561656E5D
:1049A000A16015F0010527D00025284603B0BDE819
:1049B000F083A3899B05A9D4A06D03F0B1F9A5E705
:1049C000009D284603F050FA0646002847D0A389E8
:1049D00043F08003A381D8F83830002BC6D140467D
:1049E00002F07AFFC2E7404602F076FF83E7A36059
:1049F000656E15F00105D7D1930524D5284603B07F
:104A0000BDE8F0834046216903F05EF8B4F90CC0BC
:104A1000022F2CF44A6C2CF0030CA4F80CC094D197
:104A200000250021012204F1430323602361636E0A
:104A30004CF0020CD807A4F80CC0A1606261DDD470
:104A40001CF4007FDAD1A06D03F06CF9284603B0A6
:104A5000BDE8F083A560CBE74FF0FF35CEE7DDF88A
:104A60000090A94504D0484603F0FEF9064620B957
:104A70004FF0FF35B4F90CC0D3E74D46A7E700BFB0
:104A80009C0000202DE9F04FD5B01C4691460791BF
:104A90000546099003F03CF902680E9410461792FF
:104AA00004F01EF916901DB1AB6B002B00F01D82B7
:104AB000079A536EDD0740F12D81B2F90C2091B2B7
:104AC0008F0409D4079B42F400529A8191B21A468E
:104AD0005B6E23F4005353660E0740F1C080079BC2
:104AE0001B69002B00F0BB8001F01A030A2B00F0B9
:104AF000C48000242BAB224698464D46CDE929447C
:104B00002893129400230024CDE914342B78CDE9A6
:104B10001922CDE91B2218920B92002B00F08F81F5
:104B2000AA4604E01AF8013F002B00F0BB80252BB9
:104B3000F8D1BAEB050640F0B9809AF80030002BA6
:104B400000F07D8100234FF0FF324FF02B0920242D
:104B50001F469AF8016008920AF1010A8DF8833025
:104B60000A930AF1010AA6F120035A2B00F2E18010
:104B7000DFE813F00503DF00DF000003DF00DF00E4
:104B8000DF00DE02DF00DF006A006E02DF00550298
:104B90007802DF0073025B005B005B005B005B0080
:104BA0005B005B005B005B00DF00DF00DF00DF001D
:104BB000DF00DF00DF006C01DF00EA01C4016C01EF
:104BC0006C016C01DF00DF00DF00DF00D002DF00DE
:104BD000DF002302DF00DF00DF00F801DF009202C8
:104BE000DF00DF008707DF00DF00DF00DF00DF001E
:104BF000DF00DF00DF006C01DF00EA01C6016C01AD
:104C00006C016C01B602C601BF01DF00C302DF0008
:104C10005A022502A402BF01DF00F80172008407D6
:104C2000DF00DF006507DF0072000022A6F130031D
:104C30001AF8016B02EB820203EB4202A6F1300389
:104C4000092BF5D90A928EE70E9B53F8042B002A04
:104C50000A920E93C0F2E0819AF8006081E7079D06
:104C60000998294601F0FCFC002841F04D83A989F0
:104C700001F01A030A2B7FF43CAF079AB2F90E3009
:104C8000002BFFF636AF536ED80702D4890541F1E9
:104C9000488123464A460799099855B0BDE8F04F28
:104CA00001F09CBCBAEB050600F0C9802A9BC8E95C
:104CB000005633442A93299B0133072B299305DCA3
:104CC00008F108080B9B33440B9336E707990998C2
:104CD00028AA04F0A3F880B90DF1AC08F2E707990F
:104CE000099828AA04F09AF8002800F099800D9BF2
:104CF0001BB11946099802F0E7FE079A536ED907CF
:104D000040F1E88093895B0601F10A830B9855B066
:104D1000BDE8F08F079BB3F90C20900591B23FF5E9
:104D2000CFAE1D46986D02F0FBFFB5F90C2091B295
:104D3000C6E6002E00F08380012300228DF8EC608F
:104D400006933BAD8DF883200C930D9208920F9241
:104D50001392109217F0020302D0069902310691C5
:104D600017F0840B07D10A990698A1EB0009B9F155
:104D7000000F00F390832A9C82B10122C8F804201E
:104D8000299A013401320DF18301072A2A942992CC
:104D9000C8F8001000F3D88308F108087BB102239B
:104DA000C8F80430299B0234013321AA072B2A9426
:104DB0002993C8F8002000F3D58308F10808BBF157
:104DC000800F00F08882089B0C9AA3EB020BBBF1CA
:104DD000000F00F3CB82FB0500F11F820C9BC8F88B
:104DE00000501C44C8F80430299B2A940133072B37
:104DF000299300F3448308F10808780705D50A9B36
:104E0000069A9D1A002D00F3B983DDE90A2306995D
:104E10008A42ACBF9B185B180B93002C7FF45FAFEA
:104E2000002329930D9B1BB10D99099802F04CFEAC
:104E300055460DF1AC082B78002B7FF471AE2A9B00
:104E4000002B41F010820023299356E70E9B073375
:104E500023F00702F2E80234CDE91434DDE914341A
:104E600024F00044994618460E9221464FF0FF3236
:104E7000AB4BFCF7BFF8002840F0188548462146A8
:104E80004FF0FF32A64BFBF79BFD002840F00E854C
:104E9000DDE9140100220023FBF788FD002840F023
:104EA00065879DF88320002103209E4D9E4B27F0AF
:104EB00080070D910690472EC8BF1D4608910C90A3
:104EC0000F9113911091002A3FF444AF069B0133D8
:104ED00006933FE7079B9B899A053FF514AF079C14
:104EE000A06D02F01FFFA3890DE7099802F0F4FC02
:104EF000DEE59AF8006047F0200732E647F0100739
:104F0000BA060E9B40F16E84073323F007031A465E
:104F10005B6852F8084B99460E92002BC0F26F84E2
:104F2000089B013300F0FB8254EA090327F0800B51
:104F300040F0F682089B002B40F0F7825F4600238A
:104F400054AD08930C933DE1012000220E9B069086
:104F500053F8041B3BAD8DF883208DF8EC100E93B5
:104F60000C90F2E64FF000090E9C089B54F8045B8D
:104F70008DF88390002D00F0A1855A1C00F0A586C5
:104F80001A464946284603F023FA0D90002801F0FE
:104F900050810D9B9DF883205B1B0C9323EAE373E8
:104FA000CDF820900E940693CDF83490CDF83C9037
:104FB000CDF84C90CDF8409085E747F0100717F0FA
:104FC000200900F0F2830E9B073323F00703D3F888
:104FD000049053F8084B0E93002327F4806B0022B3
:104FE0008DF88320089A511C00F0D48054EA0901FE
:104FF0002BF0800740F0CD80002A40F00486002B83
:105000009DD11BF001030C9300F0308430230DF28E
:105010004F158DF84F31D5E00A9B5B420A939AF801
:10502000006047F004079CE5BD0600F1FD84FC0626
:1050300000F1EE85780600F1B286B90540F1E88509
:105040000E9B0B9953F8042B554611700E93F2E604
:105050009AF800608DF8839083E59AF8006047F035
:1050600080077EE5524612F8016B2A2E01F08D82F0
:10507000A6F13003092B924698BF002201F2E58089
:105080001AF8016B02EB820203EB4202A6F1300335
:10509000092BF5D9089266E547F0100B1BF02009A3
:1050A00000F091830E9B073323F007031A4652F852
:1050B000084BD3F804900E92012390E73022782613
:1050C0000E9B8DF8842053F8044B184A0E934FF032
:1050D0000009022347F0020B8DF8856018927EE7E5
:1050E0009AF80060682E03BF9AF8016047F40077D1
:1050F0000AF1010A47F0400733E59AF800606C2E88
:1051000003BF9AF8016047F020070AF1010A47F04F
:10511000100726E59AF8006047F0080721E500BF70
:10512000FFFFEF7F20B1000824B1000830B1000874
:10513000099E304602F0ECFD436818461B9303F0CD
:10514000CFFD034630461C931E4602F0E1FD836806
:105150001993002E3FF480AD199B002B3FF47CADDA
:10516000199B1B78002B3FF477AD9AF8006047F449
:105170008067F6E49AF8006047F00107F1E49DF8D3
:105180008330002B7FF468AD9AF800608DF883407F
:10519000E7E4BB46012B00F0C381022B54AD1FD1C5
:1051A000189A04F00F03D35C240944EA09744FEA07
:1051B000191905F8013D54EA0903F2D15F4654ABD1
:1051C0005B1B0C93089A0C9900238A42B8BF0A46CD
:1051D0000D9306920F939DF883201393109372E61C
:1051E00004F00703E40844EA49744FEAD90930336C
:1051F00054EA09012A4605F8013DF1D11BF0010FDF
:10520000DCD0302BDAD03023023A05F8013C54AB25
:105210009B1A5F4615460C93D4E7652E40F3E98050
:10522000DDE9140100220023FBF7B6FB002800F0A3
:10523000E1810123C8F80430299BC04A01330134BD
:10524000072B2A942993C8F8002000F3BF8408F1A3
:105250000808229B129A934280F2DC82169B179ACE
:105260001C44C8E90023299B2A940133072B299366
:1052700000F3178408F10808129B5D1E002D7FF7CC
:10528000BCAD102D41F35D81DFF8B4922246494652
:105290001026B946299B0F46DDF824B0079C05E08F
:1052A00008F10808103D102D40F39D8401331032A1
:1052B000072BC8E90076CDE92932F1DD21465846B1
:1052C00028AA03F0ABFD00287FF411ADDDE92932F7
:1052D0000DF1AC08E6E70A9B069AA3EB020BBBF1C3
:1052E000000F7FF770ADBBF1100F41F35280DFF874
:1052F000509241462046A8464C461023299A079DC5
:10530000DDF8249006E0ABF1100BBBF1100F01F1BA
:10531000080119DD01321030072AC1E90043CDE947
:105320002920F0DD2946484628AA03F077FD002809
:105330007FF4DDACDDE92920ABF1100BBBF1100FE0
:105340004FF010032BA9E5DC4546A14688460446EC
:1053500001325C44072ACDE92924C8F80090C8F836
:1053600004B000F3918308F108082CE5BBF1100F9D
:1053700040F3E384DFF8C89141462046A8464C46F6
:105380001023299A079DDDF8249006E0ABF1100B5D
:10539000BBF1100F01F1080119DD01321030072AAD
:1053A000C1E90043CDE92920F0DD2946484628AA75
:1053B00003F034FD00287FF49AACDDE92920ABF13D
:1053C000100BBBF1100F4FF010032BA9E5DC454685
:1053D000A1468846044601325C44072ACDE92924C7
:1053E000C8F80090C8F804B000F3D28108F10808AA
:1053F000F1E4129B012B40F382810123299E0134A9
:105400001E44072EC8F800502A94C8F80430299684
:1054100000F36C8308F10808169B0136179A1C44A8
:10542000072EC8E90023CDE9296400F36C8308F155
:1054300008080022DDE914010023FBF7ADFA00287B
:1054400040F07A81129B0136013B01351C44072E46
:10545000C8F800502996C8F804302A9400F35F81F8
:1054600008F108081A9B01361C44C8F80430072EBE
:1054700024ABCDE92964C8F800307FF7BCAC0799AC
:10548000099828AA03F0CAFC00287FF430AC2A9CB3
:105490000DF1AC08B1E4B9F1100F40F3C686DDE9B7
:1054A00029214046CDE91D36B84610244F46079EB7
:1054B000A946099D04E0103F102F00F1080016DDF9
:1054C0000132204B1031072AC0E90034CDE92921EF
:1054D000F1DD3146284628AA03F0A0FC00287FF41D
:1054E00006ACDDE92921103F102F2BA8E8DC4D4642
:1054F000DDE91D36B9464746804609EB0104013215
:105500001049072ACDE92924C8F80490C8F80010EA
:1055100000F340839DF8832008F108082CE4BB4683
:105520000A2C79F1000380F0FB82012330345F46BE
:105530008DF84F410C930DF24F1543E660B1000812
:1055400074B1000864B100080799099828AA1D934E
:1055500003F064FC00287FF4CAAB2A9C1D9B0DF16C
:10556000AC081BE40799099828AA03F057FC002807
:105570007FF4BDAB2A9C0DF1AC0820E4102D40F364
:10558000BE861026299B099FDDF81C9004E0103D83
:10559000102D08F1080817DD0133BA4A1034072B23
:1055A000C8E90026CDE92934F1DD4946384628AA64
:1055B00003F034FC00287FF49AABDDE92934103D78
:1055C000102D0DF1AC08E7DC0133AE4A2C44072B5B
:1055D000CDE92934C8F80450C8F800207FF715AC8D
:1055E0000799099828AA03F019FC00287FF47FABDB
:1055F0002A9C0AE42299002940F31081DDF84090AA
:10560000129B9945A8BF9946B9F1000F0BDD299B64
:105610004C440133072BC8E900592A94299300F31D
:10562000818508F10808109EB9F1000FA8BFA6EB0C
:105630000906002E00F3F582DDF840B07905AB4491
:1056400000F1AC84229B129A934202DBFA0740F1EC
:105650009283169A17991444C8E90012299A2A9439
:105660000132072A299200F3A88508F10808129A46
:10567000AE18A6EB0B06D51AAE42A8BF2E46002EDA
:105680000DDD299B34440133072BC8F800B0C8F85E
:1056900004602A94299300F3FC8508F10808002E81
:1056A000A8BFAD1B002D7FF7A8AB102D40F3498795
:1056B000DFF8D491224649461026B946299B0F4669
:1056C000DDF824B0079C05E008F10808103D102D16
:1056D00040F3898201331032072BC8E90076CDE907
:1056E0002932F1DD2146584628AA03F097FB00280D
:1056F0007FF4FDAADDE929320DF1AC08E6E7FE07EB
:105700003FF57BAE0123299E01341E44072EC8F8C5
:1057100000502A94C8F8043029967FF7A1AE079963
:10572000099828AA03F07AFB00287FF4E0AADDE9B3
:1057300029640DF1AC0895E6129B5D1E002D7FF7E4
:1057400091AE102D40F31987224608974FF0100BA9
:10575000DFF83491099C079F05E008F10808103D27
:10576000102D40F3C78201361032072EC8E9009B86
:10577000CDE92962F1DD3946204628AA03F04EFB27
:1057800000287FF4B4AADDE929620DF1AC08E6E750
:105790000799099828AA03F041FB00287FF4A7AADB
:1057A0002A9C0DF1AC08FFF716BB17F0100377D158
:1057B00017F0400200F0AC820E9A994652F8044B62
:1057C0000E92A4B208E41BF010030E9A54D11BF001
:1057D00040014DD052F8044B99460E920123A4B2D9
:1057E000FFF7FDBB53F8044B0E93FB0653D47D0625
:1057F0004ED544F3C0394B4624B2FFF78EBB2D2360
:1058000064428DF88330BB464FF0010369EB4909D0
:10581000FFF7E8BBF8077FF5F0AA1FE50123C8F8FA
:105820000430299B194A01330134072B2A94299308
:10583000C8F8002000F3688408F10808002940F047
:105840002582129A07F0010313433FF4D6AA169B50
:105850001799E218C8E90013299B2A920133072BF4
:10586000299300F3508308F1080820E254ADA9E41D
:105870001BF4007940F0A08252F8044B01230E92F1
:10588000FFF7ADBB64B1000874B1000860B1000857
:10589000B80500F179824FEAE4794B46FFF73DBB4A
:1058A0000E9B53F8044B0E93FFF796BBDDE91401F2
:1058B00002460B46FBF79EFB002840F0F785612E61
:1058C00000F06C85412E00F07F82089B013300F0D0
:1058D000948526F02003472B069300F07B85DDE9B5
:1058E000141247F480730F931346002BC0F2F48513
:1058F0000C9300238B461D930D93069B462B00F0C3
:105900002B84452B00F0148508990C9B01910221F2
:10591000009126A9049123A9039122A95A46099826
:10592000029100F0ADFF069B0546472B40F04486F0
:1059300017F0010FB9460F9F40F0F784269B5B1BC1
:105940001293069B472B00F0F182069B462B00F03A
:105950004284229B1093109B069A013B412A22937A
:1059600000F08A850021F2B2002B8DF89020B6BF9E
:105970002D222B22109B8DF89120B8BFC3F101037B
:10598000092B40F381850DF19F0C6246BA4F1C46EE
:10599000104687FB0312D917C1EBA20101EB81026C
:1059A000A3EB42023032632C00F8012C0B4600F1CD
:1059B000FF32ECDC3033811EDBB28C4502F8013C57
:1059C00040F2FF850DF1920101E012F8013B944590
:1059D00001F8013BF9D10DF1A1030DF192021B1A5F
:1059E000134424AA9B1A1A93129B1A9A012B1A4445
:1059F0000C9240F39E850C9B169A13440C93002343
:105A00000C9A29F4806722EAE27247F480770F93B8
:105A10000692139310931D9B002B40F0B0829DF8CB
:105A200083200893FFF74FBA0E9B0B9853F8041B83
:105A3000C2175546C1E900020E93FFF7FCB98F4B20
:105A4000189317F0200949D00E9B073323F0070362
:105A5000D3F8049053F8084B0E93F80709D554EA8D
:105A6000090306D030238DF8856047F002078DF8D2
:105A70008430022327F4806BFFF7B1BABB46FFF7EF
:105A80000DBB7F4B1893DCE70799099828AA03F010
:105A9000C5F900287FF42BA92A9C0DF1AC08FFF76B
:105AA00092B90799099828AA03F0B8F900287FF459
:105AB0001EA92A9C0DF1AC08FFF7DEBB062B294678
:105AC00028BF06232A4608950D9506936D4D0E9422
:105AD0000C930F9113911091FFF7F5B917F0100384
